{
  "fileName": "DarkForestCore.sol",
  "contractName": "DarkForestCore",
  "source": "// SPDX-License-Identifier: UNLICENSED\npragma solidity ^0.6.9;\npragma experimental ABIEncoderV2;\n\n// Import base Initializable contract\nimport \"@openzeppelin/contracts-ethereum-package/contracts/Initializable.sol\";\nimport \"@openzeppelin/contracts-ethereum-package/contracts/math/SafeMath.sol\";\nimport \"@openzeppelin/contracts-ethereum-package/contracts/math/Math.sol\";\nimport \"./Verifier.sol\";\nimport \"./DarkForestStorageV1.sol\";\nimport \"./DarkForestUtils.sol\";\nimport \"./DarkForestPlanet.sol\";\nimport \"./DarkForestLazyUpdate.sol\";\nimport \"./DarkForestInitialize.sol\";\n\n// .______       _______     ___       _______  .___  ___.  _______\n// |   _  \\     |   ____|   /   \\     |       \\ |   \\/   | |   ____|\n// |  |_)  |    |  |__     /  ^  \\    |  .--.  ||  \\  /  | |  |__\n// |      /     |   __|   /  /_\\  \\   |  |  |  ||  |\\/|  | |   __|\n// |  |\\  \\----.|  |____ /  _____  \\  |  '--'  ||  |  |  | |  |____\n// | _| `._____||_______/__/     \\__\\ |_______/ |__|  |__| |_______|\n//\n// READ THIS FIRST BEFORE EDITING ANYTHING IN THIS FILE:\n// https://docs.openzeppelin.com/learn/upgrading-smart-contracts#limitations-of-contract-upgrades\n//\n// DO NOT ADD ANY STORAGE VARIABLES IN THIS FILE\n// IT SHOULD BELONG AT STORAGE CONTRACTS\n// ADDING STORAGE VARIABLES HERE WI LL BLOCK ANY STORAGE CONTRACTS FROM EVER\n// ADDING THEIR OWN VARIABLES EVER AGAIN.\n\ncontract DarkForestCore is Initializable, DarkForestStorageV1 {\n    using ABDKMath64x64 for *;\n    using SafeMath for *;\n    using Math for uint256;\n\n    event PlayerInitialized(address player, uint256 loc);\n    event ArrivalQueued(uint256 arrivalId);\n    event PlanetUpgraded(uint256 loc);\n    event PlanetDelegated(uint256 loc, address player);\n    event PlanetUndelegated(uint256 loc, address player);\n    event BoughtHat(uint256 loc);\n\n    function initialize(\n        address _adminAddress,\n        address payable _whitelistAddress,\n        bool _disableZKCheck\n    ) public initializer {\n        adminAddress = _adminAddress;\n        whitelist = Whitelist(_whitelistAddress);\n\n        paused = false;\n\n        DISABLE_ZK_CHECK = _disableZKCheck;\n\n        gameEndTimestamp = 1697464000;\n        target4RadiusConstant = 50;\n        target5RadiusConstant = 12;\n\n        planetLevelThresholds = [\n            16777216,\n            4194256,\n            1048516,\n            262081,\n            65472,\n            16320,\n            4032,\n            960\n        ];\n\n        DarkForestInitialize.initializeDefaults(planetDefaultStats);\n        DarkForestInitialize.initializeUpgrades(upgrades);\n\n        initializedPlanetCountByLevel = [0, 0, 0, 0, 0, 0, 0, 0];\n        for (uint256 i = 0; i < planetLevelThresholds.length; i += 1) {\n            cumulativeRarities.push(\n                (2**24 / planetLevelThresholds[i]) * PLANET_RARITY\n            );\n        }\n\n        _updateWorldRadius();\n    }\n\n    //////////////////////\n    /// ACCESS CONTROL ///\n    //////////////////////\n    modifier onlyAdmin() {\n        require(msg.sender == adminAddress, \"Sender is not a game master\");\n        _;\n    }\n\n    modifier onlyWhitelisted() {\n        require(\n            whitelist.isWhitelisted(msg.sender),\n            \"Player is not whitelisted\"\n        );\n        _;\n    }\n\n    modifier notPaused() {\n        require(!paused, \"Game is paused\");\n        _;\n    }\n\n    modifier notEnded() {\n        require(block.timestamp < gameEndTimestamp, \"Game have ended\");\n        _;\n    }\n\n    function changeAdmin(address _newAdmin) public onlyAdmin {\n        require(_newAdmin != address(0), \"newOwner cannot be 0x0\");\n        adminAddress = _newAdmin;\n    }\n\n    /////////////////////////////\n    /// Administrative Engine ///\n    /////////////////////////////\n    function pause() public onlyAdmin {\n        require(!paused, \"Game is already paused\");\n        paused = true;\n    }\n\n    function unpause() public onlyAdmin {\n        require(paused, \"Game is already unpaused\");\n        paused = false;\n    }\n\n    function changeGameEndTime(uint256 _newGameEnd) public onlyAdmin {\n        gameEndTimestamp = _newGameEnd;\n    }\n\n    function changeTarget4RadiusConstant(uint256 _newConstant)\n        public\n        onlyAdmin\n    {\n        target4RadiusConstant = _newConstant;\n    }\n\n    function changeTarget5RadiusConstant(uint256 _newConstant)\n        public\n        onlyAdmin\n    {\n        target5RadiusConstant = _newConstant;\n    }\n\n    function withdraw() public onlyAdmin {\n        msg.sender.transfer(address(this).balance);\n    }\n\n    //////////////\n    /// Helper ///\n    //////////////\n\n    // Public helper getters\n    function getNPlanets() public view returns (uint256) {\n        return planetIds.length;\n    }\n\n    function bulkGetPlanetIds(uint256 startIdx, uint256 endIdx)\n        public\n        view\n        returns (uint256[] memory ret)\n    {\n        // return slice of planetIds array from startIdx through endIdx - 1\n        ret = new uint256[](endIdx - startIdx);\n        for (uint256 i = startIdx; i < endIdx; i++) {\n            ret[i - startIdx] = planetIds[i];\n        }\n    }\n\n    function bulkGetPlanetsByIds(uint256[] calldata ids)\n        public\n        view\n        returns (DarkForestTypes.Planet[] memory ret)\n    {\n        ret = new DarkForestTypes.Planet[](ids.length);\n\n        for (uint256 i = 0; i < ids.length; i++) {\n            ret[i] = planets[ids[i]];\n        }\n    }\n\n    function bulkGetPlanetArrivalsByIds(uint256[] calldata ids)\n        public\n        view\n        returns (DarkForestTypes.ArrivalData[][] memory)\n    {\n\n            DarkForestTypes.ArrivalData[][] memory ret\n         = new DarkForestTypes.ArrivalData[][](ids.length);\n\n        for (uint256 i = 0; i < ids.length; i++) {\n            ret[i] = getPlanetArrivals(ids[i]);\n        }\n\n        return ret;\n    }\n\n    function bulkGetPlanetsExtendedInfoByIds(uint256[] calldata ids)\n        public\n        view\n        returns (DarkForestTypes.PlanetExtendedInfo[] memory ret)\n    {\n        ret = new DarkForestTypes.PlanetExtendedInfo[](ids.length);\n\n        for (uint256 i = 0; i < ids.length; i++) {\n            ret[i] = planetsExtendedInfo[ids[i]];\n        }\n    }\n\n    function bulkGetPlanets(uint256 startIdx, uint256 endIdx)\n        public\n        view\n        returns (DarkForestTypes.Planet[] memory ret)\n    {\n        // return array of planets corresponding to planetIds[startIdx] through planetIds[endIdx - 1]\n        ret = new DarkForestTypes.Planet[](endIdx - startIdx);\n        for (uint256 i = startIdx; i < endIdx; i++) {\n            ret[i - startIdx] = planets[planetIds[i]];\n        }\n    }\n\n    function bulkGetPlanetsExtendedInfo(uint256 startIdx, uint256 endIdx)\n        public\n        view\n        returns (DarkForestTypes.PlanetExtendedInfo[] memory ret)\n    {\n        // return array of planets corresponding to planetIds[startIdx] through planetIds[endIdx - 1]\n        ret = new DarkForestTypes.PlanetExtendedInfo[](endIdx - startIdx);\n        for (uint256 i = startIdx; i < endIdx; i++) {\n            ret[i - startIdx] = planetsExtendedInfo[planetIds[i]];\n        }\n    }\n\n    function bulkGetCompactArrivalsByIds(uint256[] calldata ids)\n        public\n        view\n        returns (DarkForestTypes.CompactArrival[] memory ret)\n    {\n        ret = new DarkForestTypes.CompactArrival[](ids.length);\n\n        for (uint256 i = 0; i < ids.length; i++) {\n            DarkForestTypes.ArrivalData memory arrival = planetArrivals[ids[i]];\n            DarkForestTypes.Planet memory from = planets[arrival.fromPlanet];\n            DarkForestTypes.Planet memory to = planets[arrival.toPlanet];\n            ret[i] = DarkForestTypes.CompactArrival({\n                popArriving: arrival.popArriving,\n                silverMoved: arrival.silverMoved,\n                departureTime: arrival.departureTime,\n                arrivalTime: arrival.arrivalTime,\n                fromPlanet: arrival.fromPlanet,\n                fromPlanetOwner: from.owner,\n                fromPlanetPopulation: from.population,\n                fromPlanetSilver: from.silver,\n                toPlanet: arrival.toPlanet,\n                toPlanetOwner: to.owner,\n                toPlanetPopulation: to.population,\n                toPlanetSilver: to.silver\n            });\n        }\n    }\n\n    function getNPlayers() public view returns (uint256) {\n        return playerIds.length;\n    }\n\n    function bulkGetPlayers(uint256 startIdx, uint256 endIdx)\n        public\n        view\n        returns (address[] memory ret)\n    {\n        // return slice of players array from startIdx through endIdx - 1\n        ret = new address[](endIdx - startIdx);\n        for (uint256 i = startIdx; i < endIdx; i++) {\n            ret[i - startIdx] = playerIds[i];\n        }\n    }\n\n    function getPlanetLevelThresholds() public view returns (uint256[] memory) {\n        return planetLevelThresholds;\n    }\n\n    function getPlanetCumulativeRarities()\n        public\n        view\n        returns (uint256[] memory)\n    {\n        return cumulativeRarities;\n    }\n\n    function getPlanetArrivals(uint256 _location)\n        public\n        view\n        returns (DarkForestTypes.ArrivalData[] memory ret)\n    {\n        uint256 arrivalCount = 0;\n        for (uint256 i = 0; i < planetEvents[_location].length; i += 1) {\n            if (\n                planetEvents[_location][i].eventType ==\n                DarkForestTypes.PlanetEventType.ARRIVAL\n            ) {\n                arrivalCount += 1;\n            }\n        }\n        ret = new DarkForestTypes.ArrivalData[](arrivalCount);\n        uint256 count = 0;\n        for (uint256 i = 0; i < planetEvents[_location].length; i += 1) {\n            if (\n                planetEvents[_location][i].eventType ==\n                DarkForestTypes.PlanetEventType.ARRIVAL\n            ) {\n                ret[count] = planetArrivals[planetEvents[_location][i].id];\n                count++;\n            }\n        }\n    }\n\n    function bulkGetPlanetArrivals(uint256 startIdx, uint256 endIdx)\n        public\n        view\n        returns (DarkForestTypes.ArrivalData[][] memory)\n    {\n        // return array of planets corresponding to planetIds[startIdx] through planetIds[endIdx - 1]\n\n\n            DarkForestTypes.ArrivalData[][] memory ret\n         = new DarkForestTypes.ArrivalData[][](endIdx - startIdx);\n        for (uint256 i = startIdx; i < endIdx; i++) {\n            ret[i - startIdx] = getPlanetArrivals(planetIds[i]);\n        }\n        return ret;\n    }\n\n    function getDefaultStats()\n        public\n        view\n        returns (DarkForestTypes.PlanetDefaultStats[] memory)\n    {\n\n            DarkForestTypes.PlanetDefaultStats[] memory ret\n         = new DarkForestTypes.PlanetDefaultStats[](\n            planetLevelThresholds.length\n        );\n        for (uint256 i = 0; i < planetLevelThresholds.length; i += 1) {\n            ret[i] = planetDefaultStats[i];\n        }\n        return ret;\n    }\n\n    function getPlanetCounts() public view returns (uint256[] memory) {\n        return initializedPlanetCountByLevel;\n    }\n\n    function getUpgrades()\n        public\n        view\n        returns (DarkForestTypes.Upgrade[4][3] memory)\n    {\n        return upgrades;\n    }\n\n    function isDelegated(uint256 _location, address _player)\n        public\n        view\n        returns (bool)\n    {\n        return\n            DarkForestUtils.isDelegated(\n                planetsExtendedInfo,\n                _location,\n                _player\n            );\n    }\n\n    // private utilities\n\n    function _locationIdValid(uint256 _loc) public pure returns (bool) {\n        return (_loc <\n            (21888242871839275222246405745257275088548364400416034343698204186575808495617 /\n                PLANET_RARITY));\n    }\n\n    // Private helpers that modify state\n    function _updateWorldRadius() private {\n        worldRadius = DarkForestUtils._getRadius(\n            initializedPlanetCountByLevel,\n            cumulativeRarities,\n            playerIds.length,\n            target4RadiusConstant,\n            target5RadiusConstant\n        );\n    }\n\n    function _initializePlanet(\n        uint256 _location,\n        uint256 _perlin,\n        bool _isHomePlanet\n    ) private {\n        require(_locationIdValid(_location), \"Not a valid planet location\");\n\n        (\n            uint256 _level,\n            DarkForestTypes.PlanetResource _resource\n        ) = DarkForestUtils._getPlanetLevelAndResource(\n            _location,\n            _perlin,\n            PERLIN_THRESHOLD_1,\n            PERLIN_THRESHOLD_2,\n            SILVER_RARITY_1,\n            SILVER_RARITY_2,\n            SILVER_RARITY_3,\n            planetLevelThresholds,\n            planetDefaultStats\n        );\n\n        if (_isHomePlanet) {\n            require(_level == 0, \"Can only initialize on planet level 0\");\n        }\n\n        DarkForestPlanet.initializePlanet(\n            planets[_location],\n            planetsExtendedInfo[_location],\n            planetDefaultStats[_level],\n            _perlin,\n            TIME_FACTOR_HUNDREDTHS,\n            PERLIN_THRESHOLD_1,\n            PERLIN_THRESHOLD_2,\n            _resource,\n            _level,\n            _location\n        );\n        planetIds.push(_location);\n        initializedPlanetCountByLevel[_level] += 1;\n    }\n\n    //////////////////////\n    /// Game Mechanics ///\n    //////////////////////\n\n    function refreshPlanet(uint256 _location)\n        public\n        onlyWhitelisted\n        notPaused\n        notEnded\n    {\n        DarkForestPlanet.refreshPlanet(\n            _location,\n            planets,\n            planetsExtendedInfo,\n            planetEvents,\n            planetArrivals\n        );\n    }\n\n    function initializePlayer(\n        uint256[2] memory _a,\n        uint256[2][2] memory _b,\n        uint256[2] memory _c,\n        uint256[3] memory _input\n    ) public onlyWhitelisted notPaused notEnded returns (uint256) {\n        if (!DISABLE_ZK_CHECK) {\n            require(\n                Verifier.verifyInitProof(_a, _b, _c, _input),\n                \"Failed init proof check\"\n            );\n        }\n\n        uint256 _location = _input[0];\n        uint256 _perlin = _input[1];\n        uint256 _radius = _input[2];\n\n        require(\n            !isPlayerInitialized[msg.sender],\n            \"Player is already initialized\"\n        );\n        require(\n            !planetsExtendedInfo[_location].isInitialized,\n            \"Planet is already initialized\"\n        );\n        require(\n            _radius <= worldRadius,\n            \"Init radius is bigger than the current world radius\"\n        );\n        require(\n            _perlin < PERLIN_THRESHOLD_1,\n            \"Init not allowed in perlin value greater than or equal to the threshold\"\n        );\n\n        // Initialize player data\n        isPlayerInitialized[msg.sender] = true;\n        playerIds.push(msg.sender);\n\n        // Initialize planet information\n        _initializePlanet(_location, _perlin, true);\n        planets[_location].owner = msg.sender;\n        planets[_location].population = 50000;\n        _updateWorldRadius();\n        emit PlayerInitialized(msg.sender, _location);\n        return _location;\n    }\n\n    function move(\n        uint256[2] memory _a,\n        uint256[2][2] memory _b,\n        uint256[2] memory _c,\n        uint256[7] memory _input\n    ) public notPaused notEnded returns (uint256) {\n        uint256 _oldLoc = _input[0];\n        uint256 _newLoc = _input[1];\n        uint256 _newPerlin = _input[2];\n        uint256 _newRadius = _input[3];\n        uint256 _maxDist = _input[4];\n        uint256 _popMoved = _input[5];\n        uint256 _silverMoved = _input[6];\n\n        if (!DISABLE_ZK_CHECK) {\n            uint256[5] memory _proofInput = [\n                _oldLoc,\n                _newLoc,\n                _newPerlin,\n                _newRadius,\n                _maxDist\n            ];\n            require(\n                Verifier.verifyMoveProof(_a, _b, _c, _proofInput),\n                \"Failed move proof check\"\n            );\n        }\n\n        // check radius\n        require(_newRadius <= worldRadius, \"Attempting to move out of bounds\");\n\n        // Only perform if the toPlanet have never initialized previously\n        if (!planetsExtendedInfo[_newLoc].isInitialized) {\n            _initializePlanet(_newLoc, _newPerlin, false);\n        } else {\n            // need to do this so people can't deny service to their own planets with gas limit\n            refreshPlanet(_newLoc);\n            require(planetEvents[_newLoc].length < 7, \"Planet is rate-limited\");\n        }\n\n        // Refresh fromPlanet first before doing any action on it\n        refreshPlanet(_oldLoc);\n        DarkForestPlanet.move(\n            _oldLoc,\n            _newLoc,\n            _maxDist,\n            _popMoved,\n            _silverMoved,\n            planetEventsCount,\n            planets,\n            planetsExtendedInfo,\n            planetEvents,\n            planetArrivals\n        );\n\n        planetEventsCount++;\n\n        _updateWorldRadius();\n        emit ArrivalQueued(planetEventsCount - 1);\n        return (planetEventsCount - 1);\n    }\n\n    function upgradePlanet(uint256 _location, uint256 _branch)\n        public\n        notPaused\n        notEnded\n        returns (uint256, uint256)\n    {\n        // _branch specifies which of the three upgrade branches player is leveling up\n        // 0 improves silver production and capacity\n        // 1 improves population\n        // 2 improves range\n        refreshPlanet(_location);\n        DarkForestPlanet.upgradePlanet(\n            _location,\n            _branch,\n            planets,\n            planetsExtendedInfo,\n            planetDefaultStats,\n            upgrades\n        );\n        emit PlanetUpgraded(_location);\n        return (_location, _branch);\n    }\n\n    function delegatePlanet(uint256 _location, address _player)\n        public\n        notPaused\n        notEnded\n    {\n        require(\n            planetsExtendedInfo[_location].isInitialized == true,\n            \"Planet is not initialized\"\n        );\n        refreshPlanet(_location);\n        require(\n            planets[_location].owner == msg.sender,\n            \"Only owner can delegate planet\"\n        );\n        require(!isDelegated(_location, _player), \"Planet already delegated\");\n        planetsExtendedInfo[_location].delegatedPlayers.push(_player);\n\n        emit PlanetDelegated(_location, _player);\n    }\n\n    function undelegatePlanet(uint256 _location, address _player)\n        public\n        notPaused\n        notEnded\n    {\n        require(\n            planetsExtendedInfo[_location].isInitialized == true,\n            \"Planet is not initialized\"\n        );\n        refreshPlanet(_location);\n        require(\n            planets[_location].owner == msg.sender,\n            \"Only owner can delegate planet\"\n        );\n\n        require(isDelegated(_location, _player), \"Planet is not delegated\");\n\n        for (\n            uint256 i = 0;\n            i < planetsExtendedInfo[_location].delegatedPlayers.length;\n            i++\n        ) {\n            if (_player == planetsExtendedInfo[_location].delegatedPlayers[i]) {\n                planetsExtendedInfo[_location]\n                    .delegatedPlayers[i] = planetsExtendedInfo[_location]\n                    .delegatedPlayers[planetsExtendedInfo[_location]\n                    .delegatedPlayers\n                    .length - 1];\n\n                planetsExtendedInfo[_location].delegatedPlayers.pop();\n                emit PlanetUndelegated(_location, _player);\n            }\n        }\n    }\n\n    function buyHat(uint256 _location) public payable {\n        require(\n            planetsExtendedInfo[_location].isInitialized == true,\n            \"Planet is not initialized\"\n        );\n\n        refreshPlanet(_location);\n\n        require(\n            planets[_location].owner == msg.sender,\n            \"Only owner can buy hat for planet\"\n        );\n\n        uint256 cost = (1 << planetsExtendedInfo[_location].hatLevel) * 1 ether;\n\n        require(msg.value >= cost, \"Insufficient value sent\");\n\n        planetsExtendedInfo[_location].hatLevel += 1;\n        emit BoughtHat(_location);\n    }\n}\n",
  "sourcePath": "contracts/DarkForestCore.sol",
  "abi": [
    {
      "anonymous": false,
      "inputs": [
        {
          "indexed": false,
          "internalType": "uint256",
          "name": "arrivalId",
          "type": "uint256"
        }
      ],
      "name": "ArrivalQueued",
      "type": "event"
    },
    {
      "anonymous": false,
      "inputs": [
        {
          "indexed": false,
          "internalType": "uint256",
          "name": "loc",
          "type": "uint256"
        }
      ],
      "name": "BoughtHat",
      "type": "event"
    },
    {
      "anonymous": false,
      "inputs": [
        {
          "indexed": false,
          "internalType": "uint256",
          "name": "loc",
          "type": "uint256"
        },
        {
          "indexed": false,
          "internalType": "address",
          "name": "player",
          "type": "address"
        }
      ],
      "name": "PlanetDelegated",
      "type": "event"
    },
    {
      "anonymous": false,
      "inputs": [
        {
          "indexed": false,
          "internalType": "uint256",
          "name": "loc",
          "type": "uint256"
        },
        {
          "indexed": false,
          "internalType": "address",
          "name": "player",
          "type": "address"
        }
      ],
      "name": "PlanetUndelegated",
      "type": "event"
    },
    {
      "anonymous": false,
      "inputs": [
        {
          "indexed": false,
          "internalType": "uint256",
          "name": "loc",
          "type": "uint256"
        }
      ],
      "name": "PlanetUpgraded",
      "type": "event"
    },
    {
      "anonymous": false,
      "inputs": [
        {
          "indexed": false,
          "internalType": "address",
          "name": "player",
          "type": "address"
        },
        {
          "indexed": false,
          "internalType": "uint256",
          "name": "loc",
          "type": "uint256"
        }
      ],
      "name": "PlayerInitialized",
      "type": "event"
    },
    {
      "inputs": [],
      "name": "DISABLE_ZK_CHECK",
      "outputs": [
        {
          "internalType": "bool",
          "name": "",
          "type": "bool"
        }
      ],
      "stateMutability": "view",
      "type": "function"
    },
    {
      "inputs": [],
      "name": "PERLIN_THRESHOLD_1",
      "outputs": [
        {
          "internalType": "uint256",
          "name": "",
          "type": "uint256"
        }
      ],
      "stateMutability": "view",
      "type": "function"
    },
    {
      "inputs": [],
      "name": "PERLIN_THRESHOLD_2",
      "outputs": [
        {
          "internalType": "uint256",
          "name": "",
          "type": "uint256"
        }
      ],
      "stateMutability": "view",
      "type": "function"
    },
    {
      "inputs": [],
      "name": "PLANET_RARITY",
      "outputs": [
        {
          "internalType": "uint256",
          "name": "",
          "type": "uint256"
        }
      ],
      "stateMutability": "view",
      "type": "function"
    },
    {
      "inputs": [],
      "name": "SILVER_RARITY_1",
      "outputs": [
        {
          "internalType": "uint256",
          "name": "",
          "type": "uint256"
        }
      ],
      "stateMutability": "view",
      "type": "function"
    },
    {
      "inputs": [],
      "name": "SILVER_RARITY_2",
      "outputs": [
        {
          "internalType": "uint256",
          "name": "",
          "type": "uint256"
        }
      ],
      "stateMutability": "view",
      "type": "function"
    },
    {
      "inputs": [],
      "name": "SILVER_RARITY_3",
      "outputs": [
        {
          "internalType": "uint256",
          "name": "",
          "type": "uint256"
        }
      ],
      "stateMutability": "view",
      "type": "function"
    },
    {
      "inputs": [],
      "name": "TIME_FACTOR_HUNDREDTHS",
      "outputs": [
        {
          "internalType": "uint256",
          "name": "",
          "type": "uint256"
        }
      ],
      "stateMutability": "view",
      "type": "function"
    },
    {
      "inputs": [
        {
          "internalType": "uint256",
          "name": "_loc",
          "type": "uint256"
        }
      ],
      "name": "_locationIdValid",
      "outputs": [
        {
          "internalType": "bool",
          "name": "",
          "type": "bool"
        }
      ],
      "stateMutability": "pure",
      "type": "function"
    },
    {
      "inputs": [],
      "name": "adminAddress",
      "outputs": [
        {
          "internalType": "address",
          "name": "",
          "type": "address"
        }
      ],
      "stateMutability": "view",
      "type": "function"
    },
    {
      "inputs": [
        {
          "internalType": "uint256[]",
          "name": "ids",
          "type": "uint256[]"
        }
      ],
      "name": "bulkGetCompactArrivalsByIds",
      "outputs": [
        {
          "components": [
            {
              "internalType": "uint256",
              "name": "popArriving",
              "type": "uint256"
            },
            {
              "internalType": "uint256",
              "name": "silverMoved",
              "type": "uint256"
            },
            {
              "internalType": "uint256",
              "name": "departureTime",
              "type": "uint256"
            },
            {
              "internalType": "uint256",
              "name": "arrivalTime",
              "type": "uint256"
            },
            {
              "internalType": "uint256",
              "name": "fromPlanet",
              "type": "uint256"
            },
            {
              "internalType": "address",
              "name": "fromPlanetOwner",
              "type": "address"
            },
            {
              "internalType": "uint256",
              "name": "fromPlanetPopulation",
              "type": "uint256"
            },
            {
              "internalType": "uint256",
              "name": "fromPlanetSilver",
              "type": "uint256"
            },
            {
              "internalType": "uint256",
              "name": "toPlanet",
              "type": "uint256"
            },
            {
              "internalType": "address",
              "name": "toPlanetOwner",
              "type": "address"
            },
            {
              "internalType": "uint256",
              "name": "toPlanetPopulation",
              "type": "uint256"
            },
            {
              "internalType": "uint256",
              "name": "toPlanetSilver",
              "type": "uint256"
            }
          ],
          "internalType": "struct DarkForestTypes.CompactArrival[]",
          "name": "ret",
          "type": "tuple[]"
        }
      ],
      "stateMutability": "view",
      "type": "function"
    },
    {
      "inputs": [
        {
          "internalType": "uint256",
          "name": "startIdx",
          "type": "uint256"
        },
        {
          "internalType": "uint256",
          "name": "endIdx",
          "type": "uint256"
        }
      ],
      "name": "bulkGetPlanetIds",
      "outputs": [
        {
          "internalType": "uint256[]",
          "name": "ret",
          "type": "uint256[]"
        }
      ],
      "stateMutability": "view",
      "type": "function"
    },
    {
      "inputs": [
        {
          "internalType": "uint256",
          "name": "startIdx",
          "type": "uint256"
        },
        {
          "internalType": "uint256",
          "name": "endIdx",
          "type": "uint256"
        }
      ],
      "name": "bulkGetPlanets",
      "outputs": [
        {
          "components": [
            {
              "internalType": "address",
              "name": "owner",
              "type": "address"
            },
            {
              "internalType": "uint256",
              "name": "range",
              "type": "uint256"
            },
            {
              "internalType": "uint256",
              "name": "speed",
              "type": "uint256"
            },
            {
              "internalType": "uint256",
              "name": "defense",
              "type": "uint256"
            },
            {
              "internalType": "uint256",
              "name": "population",
              "type": "uint256"
            },
            {
              "internalType": "uint256",
              "name": "populationCap",
              "type": "uint256"
            },
            {
              "internalType": "uint256",
              "name": "populationGrowth",
              "type": "uint256"
            },
            {
              "internalType": "enum DarkForestTypes.PlanetResource",
              "name": "planetResource",
              "type": "uint8"
            },
            {
              "internalType": "uint256",
              "name": "silverCap",
              "type": "uint256"
            },
            {
              "internalType": "uint256",
              "name": "silverGrowth",
              "type": "uint256"
            },
            {
              "internalType": "uint256",
              "name": "silver",
              "type": "uint256"
            },
            {
              "internalType": "uint256",
              "name": "planetLevel",
              "type": "uint256"
            }
          ],
          "internalType": "struct DarkForestTypes.Planet[]",
          "name": "ret",
          "type": "tuple[]"
        }
      ],
      "stateMutability": "view",
      "type": "function"
    },
    {
      "inputs": [
        {
          "internalType": "uint256[]",
          "name": "ids",
          "type": "uint256[]"
        }
      ],
      "name": "bulkGetPlanetsByIds",
      "outputs": [
        {
          "components": [
            {
              "internalType": "address",
              "name": "owner",
              "type": "address"
            },
            {
              "internalType": "uint256",
              "name": "range",
              "type": "uint256"
            },
            {
              "internalType": "uint256",
              "name": "speed",
              "type": "uint256"
            },
            {
              "internalType": "uint256",
              "name": "defense",
              "type": "uint256"
            },
            {
              "internalType": "uint256",
              "name": "population",
              "type": "uint256"
            },
            {
              "internalType": "uint256",
              "name": "populationCap",
              "type": "uint256"
            },
            {
              "internalType": "uint256",
              "name": "populationGrowth",
              "type": "uint256"
            },
            {
              "internalType": "enum DarkForestTypes.PlanetResource",
              "name": "planetResource",
              "type": "uint8"
            },
            {
              "internalType": "uint256",
              "name": "silverCap",
              "type": "uint256"
            },
            {
              "internalType": "uint256",
              "name": "silverGrowth",
              "type": "uint256"
            },
            {
              "internalType": "uint256",
              "name": "silver",
              "type": "uint256"
            },
            {
              "internalType": "uint256",
              "name": "planetLevel",
              "type": "uint256"
            }
          ],
          "internalType": "struct DarkForestTypes.Planet[]",
          "name": "ret",
          "type": "tuple[]"
        }
      ],
      "stateMutability": "view",
      "type": "function"
    },
    {
      "inputs": [
        {
          "internalType": "uint256",
          "name": "startIdx",
          "type": "uint256"
        },
        {
          "internalType": "uint256",
          "name": "endIdx",
          "type": "uint256"
        }
      ],
      "name": "bulkGetPlanetsExtendedInfo",
      "outputs": [
        {
          "components": [
            {
              "internalType": "bool",
              "name": "isInitialized",
              "type": "bool"
            },
            {
              "internalType": "uint256",
              "name": "createdAt",
              "type": "uint256"
            },
            {
              "internalType": "uint256",
              "name": "lastUpdated",
              "type": "uint256"
            },
            {
              "internalType": "uint256",
              "name": "perlin",
              "type": "uint256"
            },
            {
              "internalType": "enum DarkForestTypes.SpaceType",
              "name": "spaceType",
              "type": "uint8"
            },
            {
              "internalType": "uint256",
              "name": "upgradeState0",
              "type": "uint256"
            },
            {
              "internalType": "uint256",
              "name": "upgradeState1",
              "type": "uint256"
            },
            {
              "internalType": "uint256",
              "name": "upgradeState2",
              "type": "uint256"
            },
            {
              "internalType": "uint256",
              "name": "hatLevel",
              "type": "uint256"
            },
            {
              "internalType": "address[]",
              "name": "delegatedPlayers",
              "type": "address[]"
            }
          ],
          "internalType": "struct DarkForestTypes.PlanetExtendedInfo[]",
          "name": "ret",
          "type": "tuple[]"
        }
      ],
      "stateMutability": "view",
      "type": "function"
    },
    {
      "inputs": [
        {
          "internalType": "uint256[]",
          "name": "ids",
          "type": "uint256[]"
        }
      ],
      "name": "bulkGetPlanetsExtendedInfoByIds",
      "outputs": [
        {
          "components": [
            {
              "internalType": "bool",
              "name": "isInitialized",
              "type": "bool"
            },
            {
              "internalType": "uint256",
              "name": "createdAt",
              "type": "uint256"
            },
            {
              "internalType": "uint256",
              "name": "lastUpdated",
              "type": "uint256"
            },
            {
              "internalType": "uint256",
              "name": "perlin",
              "type": "uint256"
            },
            {
              "internalType": "enum DarkForestTypes.SpaceType",
              "name": "spaceType",
              "type": "uint8"
            },
            {
              "internalType": "uint256",
              "name": "upgradeState0",
              "type": "uint256"
            },
            {
              "internalType": "uint256",
              "name": "upgradeState1",
              "type": "uint256"
            },
            {
              "internalType": "uint256",
              "name": "upgradeState2",
              "type": "uint256"
            },
            {
              "internalType": "uint256",
              "name": "hatLevel",
              "type": "uint256"
            },
            {
              "internalType": "address[]",
              "name": "delegatedPlayers",
              "type": "address[]"
            }
          ],
          "internalType": "struct DarkForestTypes.PlanetExtendedInfo[]",
          "name": "ret",
          "type": "tuple[]"
        }
      ],
      "stateMutability": "view",
      "type": "function"
    },
    {
      "inputs": [
        {
          "internalType": "uint256",
          "name": "startIdx",
          "type": "uint256"
        },
        {
          "internalType": "uint256",
          "name": "endIdx",
          "type": "uint256"
        }
      ],
      "name": "bulkGetPlayers",
      "outputs": [
        {
          "internalType": "address[]",
          "name": "ret",
          "type": "address[]"
        }
      ],
      "stateMutability": "view",
      "type": "function"
    },
    {
      "inputs": [
        {
          "internalType": "uint256",
          "name": "_location",
          "type": "uint256"
        }
      ],
      "name": "buyHat",
      "outputs": [],
      "stateMutability": "payable",
      "type": "function"
    },
    {
      "inputs": [
        {
          "internalType": "address",
          "name": "_newAdmin",
          "type": "address"
        }
      ],
      "name": "changeAdmin",
      "outputs": [],
      "stateMutability": "nonpayable",
      "type": "function"
    },
    {
      "inputs": [
        {
          "internalType": "uint256",
          "name": "_newGameEnd",
          "type": "uint256"
        }
      ],
      "name": "changeGameEndTime",
      "outputs": [],
      "stateMutability": "nonpayable",
      "type": "function"
    },
    {
      "inputs": [
        {
          "internalType": "uint256",
          "name": "_newConstant",
          "type": "uint256"
        }
      ],
      "name": "changeTarget4RadiusConstant",
      "outputs": [],
      "stateMutability": "nonpayable",
      "type": "function"
    },
    {
      "inputs": [
        {
          "internalType": "uint256",
          "name": "_newConstant",
          "type": "uint256"
        }
      ],
      "name": "changeTarget5RadiusConstant",
      "outputs": [],
      "stateMutability": "nonpayable",
      "type": "function"
    },
    {
      "inputs": [
        {
          "internalType": "uint256",
          "name": "",
          "type": "uint256"
        }
      ],
      "name": "cumulativeRarities",
      "outputs": [
        {
          "internalType": "uint256",
          "name": "",
          "type": "uint256"
        }
      ],
      "stateMutability": "view",
      "type": "function"
    },
    {
      "inputs": [
        {
          "internalType": "uint256",
          "name": "_location",
          "type": "uint256"
        },
        {
          "internalType": "address",
          "name": "_player",
          "type": "address"
        }
      ],
      "name": "delegatePlanet",
      "outputs": [],
      "stateMutability": "nonpayable",
      "type": "function"
    },
    {
      "inputs": [],
      "name": "getDefaultStats",
      "outputs": [
        {
          "components": [
            {
              "internalType": "string",
              "name": "label",
              "type": "string"
            },
            {
              "internalType": "uint256",
              "name": "populationCap",
              "type": "uint256"
            },
            {
              "internalType": "uint256",
              "name": "populationGrowth",
              "type": "uint256"
            },
            {
              "internalType": "uint256",
              "name": "range",
              "type": "uint256"
            },
            {
              "internalType": "uint256",
              "name": "speed",
              "type": "uint256"
            },
            {
              "internalType": "uint256",
              "name": "defense",
              "type": "uint256"
            },
            {
              "internalType": "uint256",
              "name": "silverGrowth",
              "type": "uint256"
            },
            {
              "internalType": "uint256",
              "name": "silverCap",
              "type": "uint256"
            },
            {
              "internalType": "uint256",
              "name": "barbarianPercentage",
              "type": "uint256"
            }
          ],
          "internalType": "struct DarkForestTypes.PlanetDefaultStats[]",
          "name": "",
          "type": "tuple[]"
        }
      ],
      "stateMutability": "view",
      "type": "function"
    },
    {
      "inputs": [],
      "name": "getNPlanets",
      "outputs": [
        {
          "internalType": "uint256",
          "name": "",
          "type": "uint256"
        }
      ],
      "stateMutability": "view",
      "type": "function"
    },
    {
      "inputs": [],
      "name": "getNPlayers",
      "outputs": [
        {
          "internalType": "uint256",
          "name": "",
          "type": "uint256"
        }
      ],
      "stateMutability": "view",
      "type": "function"
    },
    {
      "inputs": [
        {
          "internalType": "uint256",
          "name": "_location",
          "type": "uint256"
        }
      ],
      "name": "getPlanetArrivals",
      "outputs": [
        {
          "components": [
            {
              "internalType": "uint256",
              "name": "id",
              "type": "uint256"
            },
            {
              "internalType": "address",
              "name": "player",
              "type": "address"
            },
            {
              "internalType": "uint256",
              "name": "fromPlanet",
              "type": "uint256"
            },
            {
              "internalType": "uint256",
              "name": "toPlanet",
              "type": "uint256"
            },
            {
              "internalType": "uint256",
              "name": "popArriving",
              "type": "uint256"
            },
            {
              "internalType": "uint256",
              "name": "silverMoved",
              "type": "uint256"
            },
            {
              "internalType": "uint256",
              "name": "departureTime",
              "type": "uint256"
            },
            {
              "internalType": "uint256",
              "name": "arrivalTime",
              "type": "uint256"
            }
          ],
          "internalType": "struct DarkForestTypes.ArrivalData[]",
          "name": "ret",
          "type": "tuple[]"
        }
      ],
      "stateMutability": "view",
      "type": "function"
    },
    {
      "inputs": [],
      "name": "getPlanetCounts",
      "outputs": [
        {
          "internalType": "uint256[]",
          "name": "",
          "type": "uint256[]"
        }
      ],
      "stateMutability": "view",
      "type": "function"
    },
    {
      "inputs": [],
      "name": "getPlanetCumulativeRarities",
      "outputs": [
        {
          "internalType": "uint256[]",
          "name": "",
          "type": "uint256[]"
        }
      ],
      "stateMutability": "view",
      "type": "function"
    },
    {
      "inputs": [],
      "name": "getPlanetLevelThresholds",
      "outputs": [
        {
          "internalType": "uint256[]",
          "name": "",
          "type": "uint256[]"
        }
      ],
      "stateMutability": "view",
      "type": "function"
    },
    {
      "inputs": [
        {
          "internalType": "address",
          "name": "_adminAddress",
          "type": "address"
        },
        {
          "internalType": "address payable",
          "name": "_whitelistAddress",
          "type": "address"
        },
        {
          "internalType": "bool",
          "name": "_disableZKCheck",
          "type": "bool"
        }
      ],
      "name": "initialize",
      "outputs": [],
      "stateMutability": "nonpayable",
      "type": "function"
    },
    {
      "inputs": [
        {
          "internalType": "uint256",
          "name": "",
          "type": "uint256"
        }
      ],
      "name": "initializedPlanetCountByLevel",
      "outputs": [
        {
          "internalType": "uint256",
          "name": "",
          "type": "uint256"
        }
      ],
      "stateMutability": "view",
      "type": "function"
    },
    {
      "inputs": [
        {
          "internalType": "uint256",
          "name": "_location",
          "type": "uint256"
        },
        {
          "internalType": "address",
          "name": "_player",
          "type": "address"
        }
      ],
      "name": "isDelegated",
      "outputs": [
        {
          "internalType": "bool",
          "name": "",
          "type": "bool"
        }
      ],
      "stateMutability": "view",
      "type": "function"
    },
    {
      "inputs": [
        {
          "internalType": "address",
          "name": "",
          "type": "address"
        }
      ],
      "name": "isPlayerInitialized",
      "outputs": [
        {
          "internalType": "bool",
          "name": "",
          "type": "bool"
        }
      ],
      "stateMutability": "view",
      "type": "function"
    },
    {
      "inputs": [],
      "name": "pause",
      "outputs": [],
      "stateMutability": "nonpayable",
      "type": "function"
    },
    {
      "inputs": [],
      "name": "paused",
      "outputs": [
        {
          "internalType": "bool",
          "name": "",
          "type": "bool"
        }
      ],
      "stateMutability": "view",
      "type": "function"
    },
    {
      "inputs": [
        {
          "internalType": "uint256",
          "name": "",
          "type": "uint256"
        }
      ],
      "name": "planetArrivals",
      "outputs": [
        {
          "internalType": "uint256",
          "name": "id",
          "type": "uint256"
        },
        {
          "internalType": "address",
          "name": "player",
          "type": "address"
        },
        {
          "internalType": "uint256",
          "name": "fromPlanet",
          "type": "uint256"
        },
        {
          "internalType": "uint256",
          "name": "toPlanet",
          "type": "uint256"
        },
        {
          "internalType": "uint256",
          "name": "popArriving",
          "type": "uint256"
        },
        {
          "internalType": "uint256",
          "name": "silverMoved",
          "type": "uint256"
        },
        {
          "internalType": "uint256",
          "name": "departureTime",
          "type": "uint256"
        },
        {
          "internalType": "uint256",
          "name": "arrivalTime",
          "type": "uint256"
        }
      ],
      "stateMutability": "view",
      "type": "function"
    },
    {
      "inputs": [
        {
          "internalType": "uint256",
          "name": "",
          "type": "uint256"
        }
      ],
      "name": "planetDefaultStats",
      "outputs": [
        {
          "internalType": "string",
          "name": "label",
          "type": "string"
        },
        {
          "internalType": "uint256",
          "name": "populationCap",
          "type": "uint256"
        },
        {
          "internalType": "uint256",
          "name": "populationGrowth",
          "type": "uint256"
        },
        {
          "internalType": "uint256",
          "name": "range",
          "type": "uint256"
        },
        {
          "internalType": "uint256",
          "name": "speed",
          "type": "uint256"
        },
        {
          "internalType": "uint256",
          "name": "defense",
          "type": "uint256"
        },
        {
          "internalType": "uint256",
          "name": "silverGrowth",
          "type": "uint256"
        },
        {
          "internalType": "uint256",
          "name": "silverCap",
          "type": "uint256"
        },
        {
          "internalType": "uint256",
          "name": "barbarianPercentage",
          "type": "uint256"
        }
      ],
      "stateMutability": "view",
      "type": "function"
    },
    {
      "inputs": [
        {
          "internalType": "uint256",
          "name": "",
          "type": "uint256"
        },
        {
          "internalType": "uint256",
          "name": "",
          "type": "uint256"
        }
      ],
      "name": "planetEvents",
      "outputs": [
        {
          "internalType": "uint256",
          "name": "id",
          "type": "uint256"
        },
        {
          "internalType": "enum DarkForestTypes.PlanetEventType",
          "name": "eventType",
          "type": "uint8"
        },
        {
          "internalType": "uint256",
          "name": "timeTrigger",
          "type": "uint256"
        },
        {
          "internalType": "uint256",
          "name": "timeAdded",
          "type": "uint256"
        }
      ],
      "stateMutability": "view",
      "type": "function"
    },
    {
      "inputs": [],
      "name": "planetEventsCount",
      "outputs": [
        {
          "internalType": "uint256",
          "name": "",
          "type": "uint256"
        }
      ],
      "stateMutability": "view",
      "type": "function"
    },
    {
      "inputs": [
        {
          "internalType": "uint256",
          "name": "",
          "type": "uint256"
        }
      ],
      "name": "planetIds",
      "outputs": [
        {
          "internalType": "uint256",
          "name": "",
          "type": "uint256"
        }
      ],
      "stateMutability": "view",
      "type": "function"
    },
    {
      "inputs": [
        {
          "internalType": "uint256",
          "name": "",
          "type": "uint256"
        }
      ],
      "name": "planetLevelThresholds",
      "outputs": [
        {
          "internalType": "uint256",
          "name": "",
          "type": "uint256"
        }
      ],
      "stateMutability": "view",
      "type": "function"
    },
    {
      "inputs": [
        {
          "internalType": "uint256",
          "name": "",
          "type": "uint256"
        }
      ],
      "name": "planets",
      "outputs": [
        {
          "internalType": "address",
          "name": "owner",
          "type": "address"
        },
        {
          "internalType": "uint256",
          "name": "range",
          "type": "uint256"
        },
        {
          "internalType": "uint256",
          "name": "speed",
          "type": "uint256"
        },
        {
          "internalType": "uint256",
          "name": "defense",
          "type": "uint256"
        },
        {
          "internalType": "uint256",
          "name": "population",
          "type": "uint256"
        },
        {
          "internalType": "uint256",
          "name": "populationCap",
          "type": "uint256"
        },
        {
          "internalType": "uint256",
          "name": "populationGrowth",
          "type": "uint256"
        },
        {
          "internalType": "enum DarkForestTypes.PlanetResource",
          "name": "planetResource",
          "type": "uint8"
        },
        {
          "internalType": "uint256",
          "name": "silverCap",
          "type": "uint256"
        },
        {
          "internalType": "uint256",
          "name": "silverGrowth",
          "type": "uint256"
        },
        {
          "internalType": "uint256",
          "name": "silver",
          "type": "uint256"
        },
        {
          "internalType": "uint256",
          "name": "planetLevel",
          "type": "uint256"
        }
      ],
      "stateMutability": "view",
      "type": "function"
    },
    {
      "inputs": [
        {
          "internalType": "uint256",
          "name": "",
          "type": "uint256"
        }
      ],
      "name": "planetsExtendedInfo",
      "outputs": [
        {
          "internalType": "bool",
          "name": "isInitialized",
          "type": "bool"
        },
        {
          "internalType": "uint256",
          "name": "createdAt",
          "type": "uint256"
        },
        {
          "internalType": "uint256",
          "name": "lastUpdated",
          "type": "uint256"
        },
        {
          "internalType": "uint256",
          "name": "perlin",
          "type": "uint256"
        },
        {
          "internalType": "enum DarkForestTypes.SpaceType",
          "name": "spaceType",
          "type": "uint8"
        },
        {
          "internalType": "uint256",
          "name": "upgradeState0",
          "type": "uint256"
        },
        {
          "internalType": "uint256",
          "name": "upgradeState1",
          "type": "uint256"
        },
        {
          "internalType": "uint256",
          "name": "upgradeState2",
          "type": "uint256"
        },
        {
          "internalType": "uint256",
          "name": "hatLevel",
          "type": "uint256"
        }
      ],
      "stateMutability": "view",
      "type": "function"
    },
    {
      "inputs": [
        {
          "internalType": "uint256",
          "name": "",
          "type": "uint256"
        }
      ],
      "name": "playerIds",
      "outputs": [
        {
          "internalType": "address",
          "name": "",
          "type": "address"
        }
      ],
      "stateMutability": "view",
      "type": "function"
    },
    {
      "inputs": [
        {
          "internalType": "uint256",
          "name": "_location",
          "type": "uint256"
        }
      ],
      "name": "refreshPlanet",
      "outputs": [],
      "stateMutability": "nonpayable",
      "type": "function"
    },
    {
      "inputs": [
        {
          "internalType": "uint256",
          "name": "_location",
          "type": "uint256"
        },
        {
          "internalType": "address",
          "name": "_player",
          "type": "address"
        }
      ],
      "name": "undelegatePlanet",
      "outputs": [],
      "stateMutability": "nonpayable",
      "type": "function"
    },
    {
      "inputs": [],
      "name": "unpause",
      "outputs": [],
      "stateMutability": "nonpayable",
      "type": "function"
    },
    {
      "inputs": [
        {
          "internalType": "uint256",
          "name": "_location",
          "type": "uint256"
        },
        {
          "internalType": "uint256",
          "name": "_branch",
          "type": "uint256"
        }
      ],
      "name": "upgradePlanet",
      "outputs": [
        {
          "internalType": "uint256",
          "name": "",
          "type": "uint256"
        },
        {
          "internalType": "uint256",
          "name": "",
          "type": "uint256"
        }
      ],
      "stateMutability": "nonpayable",
      "type": "function"
    },
    {
      "inputs": [
        {
          "internalType": "uint256",
          "name": "",
          "type": "uint256"
        },
        {
          "internalType": "uint256",
          "name": "",
          "type": "uint256"
        }
      ],
      "name": "upgrades",
      "outputs": [
        {
          "internalType": "uint256",
          "name": "popCapMultiplier",
          "type": "uint256"
        },
        {
          "internalType": "uint256",
          "name": "popGroMultiplier",
          "type": "uint256"
        },
        {
          "internalType": "uint256",
          "name": "rangeMultiplier",
          "type": "uint256"
        },
        {
          "internalType": "uint256",
          "name": "speedMultiplier",
          "type": "uint256"
        },
        {
          "internalType": "uint256",
          "name": "defMultiplier",
          "type": "uint256"
        }
      ],
      "stateMutability": "view",
      "type": "function"
    },
    {
      "inputs": [],
      "name": "withdraw",
      "outputs": [],
      "stateMutability": "nonpayable",
      "type": "function"
    },
    {
      "inputs": [],
      "name": "worldRadius",
      "outputs": [
        {
          "internalType": "uint256",
          "name": "",
          "type": "uint256"
        }
      ],
      "stateMutability": "view",
      "type": "function"
    }
  ],
  "bytecode": "0x608060405234801561001057600080fd5b50614b03806100206000396000f3fe6080604052600436106103815760003560e01c806378d1742b116101d1578063ae3f861911610102578063ccf738e9116100a0578063e4bbb5a81161006f578063e4bbb5a814610a7f578063f6e46b6014610a9f578063fc6f946814610ab4578063fe80bb1214610ac957610381565b8063ccf738e9146109e8578063d6127ab414610a1d578063dacb613514610a3d578063de2edb9114610a6a57610381565b8063c012b112116100dc578063c012b11214610955578063c68b812614610982578063c8d503ea14610997578063c9359491146109b757610381565b8063ae3f8619146108f6578063b5549e641461090b578063bb4908f21461094057610381565b80639184f0b61161016f5780639fd4d4d4116101495780639fd4d4d414610873578063aaca42e914610886578063ab230321146108a6578063ad489091146108d657610381565b80639184f0b614610806578063975de6131461082657806398f94a8e1461085357610381565b80638456cb59116101ab5780638456cb59146107a75780638a05b329146107bc5780638af9d562146107d15780638f283970146107e657610381565b806378d1742b1461075257806378d4ce95146107675780638151e1d21461078757610381565b80633f324cf3116102b65780636306a1221161025457806373a853811161022357806373a85381146106bb57806374b99106146106e957806376af38b4146106fe57806378622ae61461073257610381565b80636306a1221461062a578063695bd00c146106575780636c7ffeec146106795780636df0a906146106a657610381565b806340a727881161029057806340a72788146105b35780634eb0e959146105d357806352f666a7146105e85780635c975abb1461061557610381565b80633f324cf3146105515780633f4ba83a146105715780633f9d7c491461058657610381565b80630af80778116103235780631f2836b7116102fd5780631f2836b7146104c4578063221f7764146104e457806326c1e750146105045780633ccfd60b1461053c57610381565b80630af807781461048457806310d4abf2146104a45780631e4abc3a1461046257610381565b80630767751a1161035f5780630767751a1461040057806308ae86141461042057806308d2e95a146104405780630ad98d411461046257610381565b8063039e4e741461038657806304d74a39146103a857806305b86be5146103de575b600080fd5b34801561039257600080fd5b506103a66103a1366004613a98565b610ade565b005b3480156103b457600080fd5b506103c86103c3366004613b1e565b610b16565b6040516103d59190614004565b60405180910390f35b3480156103ea57600080fd5b506103f3610cc5565b6040516103d59190614238565b34801561040c57600080fd5b506103a661041b366004613a98565b610d1d565b34801561042c57600080fd5b506103a661043b366004613ac8565b610d4c565b34801561044c57600080fd5b50610455610f8d565b6040516103d59190613f48565b34801561046e57600080fd5b50610477611124565b6040516103d59190613e5f565b34801561049057600080fd5b5061047761049f36600461397c565b611129565b3480156104b057600080fd5b506104776104bf366004613a98565b6113f0565b3480156104d057600080fd5b506104776104df366004613a98565b61140e565b3480156104f057600080fd5b506104776104ff366004613a98565b61141b565b34801561051057600080fd5b5061052461051f366004613a98565b611428565b6040516103d59c9b9a99989796959493929190613cf6565b34801561054857600080fd5b506103a6611495565b34801561055d57600080fd5b506103a661056c366004613a98565b6114ef565b34801561057d57600080fd5b506103a661164c565b34801561059257600080fd5b506105a66105a1366004613a0e565b6116ae565b6040516103d59190613d80565b3480156105bf57600080fd5b506105a66105ce366004613b1e565b61174b565b3480156105df57600080fd5b506104776117e8565b3480156105f457600080fd5b50610608610603366004613ac8565b6117ee565b6040516103d5919061429f565b34801561062157600080fd5b50610608611884565b34801561063657600080fd5b5061064a610645366004613a0e565b611894565b6040516103d59190613e7b565b34801561066357600080fd5b5061066c611bd6565b6040516103d59190613de0565b34801561068557600080fd5b50610699610694366004613b1e565b611c86565b6040516103d59190613d6d565b3480156106b257600080fd5b50610477611d30565b3480156106c757600080fd5b506106db6106d6366004613b1e565b611d35565b6040516103d59291906149c0565b3480156106f557600080fd5b50610477611e42565b34801561070a57600080fd5b5061071e610719366004613a98565b611e47565b6040516103d5989796959493929190614955565b34801561073e57600080fd5b506103c861074d366004613a0e565b611e94565b34801561075e57600080fd5b506103f3612034565b34801561077357600080fd5b506104776107823660046138dc565b61208a565b34801561079357600080fd5b506103a66107a2366004613a98565b6123bb565b3480156107b357600080fd5b506103a66123ea565b3480156107c857600080fd5b50610477612453565b3480156107dd57600080fd5b50610608612459565b3480156107f257600080fd5b506103a6610801366004613876565b612469565b34801561081257600080fd5b50610608610821366004613876565b6124db565b34801561083257600080fd5b50610846610841366004613b1e565b6124f0565b6040516103d591906140cd565b34801561085f57600080fd5b5061084661086e366004613a0e565b612668565b6103a6610881366004613a98565b6127d8565b34801561089257600080fd5b506103f36108a1366004613b1e565b6128db565b3480156108b257600080fd5b506108c66108c1366004613b1e565b612965565b6040516103d59493929190614994565b3480156108e257600080fd5b506104776108f1366004613a98565b6129ab565b34801561090257600080fd5b506103f36129b8565b34801561091757600080fd5b5061092b610926366004613a98565b612a0e565b6040516103d59998979695949392919061431e565b34801561094c57600080fd5b50610477612aee565b34801561096157600080fd5b50610975610970366004613a98565b612af4565b6040516103d59190613cc9565b34801561098e57600080fd5b50610477612b1b565b3480156109a357600080fd5b506106086109b2366004613a98565b612b21565b3480156109c357600080fd5b506109d76109d2366004613b1e565b612b44565b6040516103d595949392919061427c565b3480156109f457600080fd5b50610a08610a03366004613a98565b612b86565b6040516103d5999897969594939291906142aa565b348015610a2957600080fd5b506103a6610a38366004613ac8565b612bd7565b348015610a4957600080fd5b50610a5d610a58366004613a98565b612d28565b6040516103d59190613e68565b348015610a7657600080fd5b50610477612f0d565b348015610a8b57600080fd5b506103a6610a9a366004613892565b612f13565b348015610aab57600080fd5b506104776131ce565b348015610ac057600080fd5b506109756131d3565b348015610ad557600080fd5b506104776131e2565b6033546001600160a01b03163314610b115760405162461bcd60e51b8152600401610b0890614432565b60405180910390fd5b607755565b60608282036001600160401b0381118015610b3057600080fd5b50604051908082528060200260200182016040528015610b6a57816020015b610b57613489565b815260200190600190039081610b4f5790505b509050825b82811015610cbe57607d600060788381548110610b8857fe5b90600052602060002001548152602001908152602001600020604051806101400160405290816000820160009054906101000a900460ff161515151581526020016001820154815260200160028201548152602001600382015481526020016004820160009054906101000a900460ff166002811115610c0457fe5b6002811115610c0f57fe5b81526020016005820154815260200160068201548152602001600782015481526020016008820154815260200160098201805480602002602001604051908101604052809291908181526020018280548015610c9457602002820191906000526020600020905b81546001600160a01b03168152600190910190602001808311610c76575b5050505050815250508285830381518110610cab57fe5b6020908102919091010152600101610b6f565b5092915050565b60606035805480602002602001604051908101604052809291908181526020018280548015610d1357602002820191906000526020600020905b815481526020019060010190808311610cff575b5050505050905090565b6033546001600160a01b03163314610d475760405162461bcd60e51b8152600401610b0890614432565b607655565b603454600160a01b900460ff1615610d765760405162461bcd60e51b8152600401610b089061477e565b6075544210610d975760405162461bcd60e51b8152600401610b0890614372565b6000828152607d602052604090205460ff161515600114610dca5760405162461bcd60e51b8152600401610b08906143fb565b610dd3826114ef565b6000828152607c60205260409020546001600160a01b03163314610e095760405162461bcd60e51b8152600401610b0890614518565b610e1382826117ee565b610e2f5760405162461bcd60e51b8152600401610b08906147dd565b60005b6000838152607d6020526040902060090154811015610f88576000838152607d60205260409020600901805482908110610e6857fe5b6000918252602090912001546001600160a01b0383811691161415610f80576000838152607d6020526040902060090180546000198101908110610ea857fe5b6000918252602080832090910154858352607d909152604090912060090180546001600160a01b039092169183908110610ede57fe5b600091825260208083209190910180546001600160a01b0319166001600160a01b039490941693909317909255848152607d90915260409020600901805480610f2357fe5b600082815260209020810160001990810180546001600160a01b03191690550190556040517f28c5d715b75d0b08d684e1ae26b95d8ff180d05ae50321619ee116e9b88164ed90610f77908590859061493e565b60405180910390a15b600101610e32565b505050565b60355460609081906001600160401b0381118015610faa57600080fd5b50604051908082528060200260200182016040528015610fe457816020015b610fd16134e9565b815260200190600190039081610fc95790505b50905060005b60355481101561111e576038818154811061100157fe5b600091825260209182902060408051600993909302909101805460026001821615610100026000190190911604601f810185900490940283016101409081019092526101208301848152929390928492909184918401828280156110a65780601f1061107b576101008083540402835291602001916110a6565b820191906000526020600020905b81548152906001019060200180831161108957829003601f168201915b505050505081526020016001820154815260200160028201548152602001600382015481526020016004820154815260200160058201548152602001600682015481526020016007820154815260200160088201548152505082828151811061110b57fe5b6020908102919091010152600101610fea565b50905090565b600881565b603454600090600160a01b900460ff16156111565760405162461bcd60e51b8152600401610b089061477e565b60755442106111775760405162461bcd60e51b8152600401610b0890614372565b8151602083015160408401516060850151608086015160a087015160c0880151603454600160a81b900460ff16611284576111b0613535565b6040518060a0016040528089815260200188815260200187815260200186815260200185815250905073__Verifier______________________________63275abc628e8e8e856040518563ffffffff1660e01b815260040161121694939291906141e7565b60206040518083038186803b15801561122e57600080fd5b505af4158015611242573d6000803e3d6000fd5b505050506040513d601f19601f820116820180604052508101906112669190613a7c565b6112825760405162461bcd60e51b8152600401610b08906146c2565b505b607a548411156112a65760405162461bcd60e51b8152600401610b0890614882565b6000868152607d602052604090205460ff166112cd576112c8868660006131e7565b611304565b6112d6866114ef565b6000868152607f60205260409020546007116113045760405162461bcd60e51b8152600401610b08906143cb565b61130d876114ef565b607b546040516306e5297d60e31b815273__DarkForestPlanet______________________916337294be89161135b918b918b91899189918991607c90607d90607f906080906004016149f6565b60006040518083038186803b15801561137357600080fd5b505af4158015611387573d6000803e3d6000fd5b5050607b805460010190555061139d90506133e7565b7f73589d8f04c4286010ba8cbf687f804de4f668cb96b2d8c73f310ceb90a48fc06001607b54036040516113d19190613e5f565b60405180910390a15050607b54600019019a9950505050505050505050565b603681815481106113fd57fe5b600091825260209091200154905081565b603781815481106113fd57fe5b603581815481106113fd57fe5b607c60205260009081526040902080546001820154600283015460038401546004850154600586015460068701546007880154600889015460098a0154600a8b0154600b909b01546001600160a01b03909a169a98999798969795969495939460ff90931693919290918c565b6033546001600160a01b031633146114bf5760405162461bcd60e51b8152600401610b0890614432565b6040513390303180156108fc02916000818181858888f193505050501580156114ec573d6000803e3d6000fd5b50565b603454604051633af32abf60e01b81526001600160a01b0390911690633af32abf9061151f903390600401613cc9565b60206040518083038186803b15801561153757600080fd5b505afa15801561154b573d6000803e3d6000fd5b505050506040513d601f19601f8201168201806040525081019061156f9190613a7c565b61158b5760405162461bcd60e51b8152600401610b089061454f565b603454600160a01b900460ff16156115b55760405162461bcd60e51b8152600401610b089061477e565b60755442106115d65760405162461bcd60e51b8152600401610b0890614372565b60405163180287b760e01b815273__DarkForestPlanet______________________9063180287b790611619908490607c90607d90607f9060809060040161427c565b60006040518083038186803b15801561163157600080fd5b505af4158015611645573d6000803e3d6000fd5b5050505050565b6033546001600160a01b031633146116765760405162461bcd60e51b8152600401610b0890614432565b603454600160a01b900460ff1661169f5760405162461bcd60e51b8152600401610b089061484b565b6034805460ff60a01b19169055565b606080826001600160401b03811180156116c757600080fd5b506040519080825280602002602001820160405280156116fb57816020015b60608152602001906001900390816116e65790505b50905060005b838110156117435761172485858381811061171857fe5b90506020020135612d28565b82828151811061173057fe5b6020908102919091010152600101611701565b509392505050565b6060808383036001600160401b038111801561176657600080fd5b5060405190808252806020026020018201604052801561179a57816020015b60608152602001906001900390816117855790505b509050835b83811015611743576117c7607882815481106117b757fe5b9060005260206000200154612d28565b82868303815181106117d557fe5b602090810291909101015260010161179f565b607a5481565b604051631f57103160e21b815260009073__DarkForestUtils_______________________90637d5c40c49061182d90607d90879087906004016142ff565b60206040518083038186803b15801561184557600080fd5b505af4158015611859573d6000803e3d6000fd5b505050506040513d601f19601f8201168201806040525081019061187d9190613a7c565b9392505050565b603454600160a01b900460ff1681565b6060816001600160401b03811180156118ac57600080fd5b506040519080825280602002602001820160405280156118e657816020015b6118d3613553565b8152602001906001900390816118cb5790505b50905060005b82811015610cbe576118fc6135c6565b6080600086868581811061190c57fe5b602090810292909201358352508181019290925260409081016000208151610100810183528154815260018201546001600160a01b0316938101939093526002810154918301919091526003810154606083015260048101546080830152600581015460a0830152600681015460c08301526007015460e08201529050611991613614565b6040808301516000908152607c60209081529082902082516101808101845281546001600160a01b03168152600180830154938201939093526002820154938101939093526003810154606084015260048101546080840152600581015460a0840152600681015460c08401526007810154909160e084019160ff1690811115611a1757fe5b6001811115611a2257fe5b81526020016008820154815260200160098201548152602001600a8201548152602001600b820154815250509050611a58613614565b6060808401516000908152607c602090815260409182902082516101808101845281546001600160a01b031681526001808301549382019390935260028201549381019390935260038101549383019390935260048301546080830152600583015460a0830152600683015460c0830152600783015491929160e084019160ff90911690811115611ae557fe5b6001811115611af057fe5b81526020016008820154815260200160098201548152602001600a8201548152602001600b820154815250509050604051806101800160405280846080015181526020018460a0015181526020018460c0015181526020018460e0015181526020018460400151815260200183600001516001600160a01b031681526020018360800151815260200183610140015181526020018460600151815260200182600001516001600160a01b0316815260200182608001518152602001826101400151815250858581518110611bc057fe5b60209081029190910101525050506001016118ec565b611bde613689565b6040805160608101909152603960036000835b82821015611c7d57604080516080810190915260148302850160046000835b82821015611c6a578382600502016040518060a00160405290816000820154815260200160018201548152602001600282015481526020016003820154815260200160048201548152505081526020019060010190611c10565b5050505081526020019060010190611bf1565b50505050905090565b60608282036001600160401b0381118015611ca057600080fd5b50604051908082528060200260200182016040528015611cca578160200160208202803683370190505b509050825b82811015610cbe5760798181548110611ce457fe5b9060005260206000200160009054906101000a90046001600160a01b03168285830381518110611d1057fe5b6001600160a01b0390921660209283029190910190910152600101611ccf565b601181565b6034546000908190600160a01b900460ff1615611d645760405162461bcd60e51b8152600401610b089061477e565b6075544210611d855760405162461bcd60e51b8152600401610b0890614372565b611d8e846114ef565b604051633097022560e21b815273__DarkForestPlanet______________________9063c25c089490611dd39087908790607c90607d906038906039906004016149ce565b60006040518083038186803b158015611deb57600080fd5b505af4158015611dff573d6000803e3d6000fd5b505050507f1c3559377dd1e586346f593aa9785e8eea8298f2d2ce1c2ef50428563d8ba84c84604051611e329190613e5f565b60405180910390a1509192909150565b600481565b6080602052600090815260409020805460018201546002830154600384015460048501546005860154600687015460079097015495966001600160a01b0390951695939492939192909188565b6060816001600160401b0381118015611eac57600080fd5b50604051908082528060200260200182016040528015611ee657816020015b611ed3613489565b815260200190600190039081611ecb5790505b50905060005b82811015610cbe57607d6000858584818110611f0457fe5b905060200201358152602001908152602001600020604051806101400160405290816000820160009054906101000a900460ff161515151581526020016001820154815260200160028201548152602001600382015481526020016004820160009054906101000a900460ff166002811115611f7c57fe5b6002811115611f8757fe5b8152602001600582015481526020016006820154815260200160078201548152602001600882015481526020016009820180548060200260200160405190810160405280929190818152602001828054801561200c57602002820191906000526020600020905b81546001600160a01b03168152600190910190602001808311611fee575b50505050508152505082828151811061202157fe5b6020908102919091010152600101611eec565b60606036805480602002602001604051908101604052809291908181526020018280548015610d135760200282019190600052602060002090815481526020019060010190808311610cff575050505050905090565b603454604051633af32abf60e01b81526000916001600160a01b031690633af32abf906120bb903390600401613cc9565b60206040518083038186803b1580156120d357600080fd5b505afa1580156120e7573d6000803e3d6000fd5b505050506040513d601f19601f8201168201806040525081019061210b9190613a7c565b6121275760405162461bcd60e51b8152600401610b089061454f565b603454600160a01b900460ff16156121515760405162461bcd60e51b8152600401610b089061477e565b60755442106121725760405162461bcd60e51b8152600401610b0890614372565b603454600160a81b900460ff1661222c576040516323bfe25560e21b815273__Verifier______________________________90638eff8954906121c090889088908890889060040161418a565b60206040518083038186803b1580156121d857600080fd5b505af41580156121ec573d6000803e3d6000fd5b505050506040513d601f19601f820116820180604052508101906122109190613a7c565b61222c5760405162461bcd60e51b8152600401610b08906144e1565b8151602080840151604080860151336000908152607e90945292205490919060ff161561226b5760405162461bcd60e51b8152600401610b0890614469565b6000838152607d602052604090205460ff161561229a5760405162461bcd60e51b8152600401610b0890614646565b607a548111156122bc5760405162461bcd60e51b8152600401610b08906145f3565b600f82106122dc5760405162461bcd60e51b8152600401610b0890614586565b336000818152607e60205260408120805460ff1916600190811790915560798054808301825592527f957bbdc7fad0dec56e7c96af4a3ab63aa9daf934a52ffce891945b7fb622d79190910180546001600160a01b03191690921790915561234790849084906131e7565b6000838152607c6020526040902080546001600160a01b0319163317815561c3506004909101556123766133e7565b7f5765df5ce7cf4175ef997923b4936159dcf3cea059434dab4643214d690a2b9533846040516123a7929190613cdd565b60405180910390a150909695505050505050565b6033546001600160a01b031633146123e55760405162461bcd60e51b8152600401610b0890614432565b607555565b6033546001600160a01b031633146124145760405162461bcd60e51b8152600401610b0890614432565b603454600160a01b900460ff161561243e5760405162461bcd60e51b8152600401610b08906148b7565b6034805460ff60a01b1916600160a01b179055565b60795490565b603454600160a81b900460ff1681565b6033546001600160a01b031633146124935760405162461bcd60e51b8152600401610b0890614432565b6001600160a01b0381166124b95760405162461bcd60e51b8152600401610b089061439b565b603380546001600160a01b0319166001600160a01b0392909216919091179055565b607e6020526000908152604090205460ff1681565b60608282036001600160401b038111801561250a57600080fd5b5060405190808252806020026020018201604052801561254457816020015b612531613614565b8152602001906001900390816125295790505b509050825b82811015610cbe57607c60006078838154811061256257fe5b90600052602060002001548152602001908152602001600020604051806101800160405290816000820160009054906101000a90046001600160a01b03166001600160a01b03166001600160a01b031681526020016001820154815260200160028201548152602001600382015481526020016004820154815260200160058201548152602001600682015481526020016007820160009054906101000a900460ff16600181111561261057fe5b600181111561261b57fe5b81526020016008820154815260200160098201548152602001600a8201548152602001600b82015481525050828583038151811061265557fe5b6020908102919091010152600101612549565b6060816001600160401b038111801561268057600080fd5b506040519080825280602002602001820160405280156126ba57816020015b6126a7613614565b81526020019060019003908161269f5790505b50905060005b82811015610cbe57607c60008585848181106126d857fe5b905060200201358152602001908152602001600020604051806101800160405290816000820160009054906101000a90046001600160a01b03166001600160a01b03166001600160a01b031681526020016001820154815260200160028201548152602001600382015481526020016004820154815260200160058201548152602001600682015481526020016007820160009054906101000a900460ff16600181111561278257fe5b600181111561278d57fe5b81526020016008820154815260200160098201548152602001600a8201548152602001600b820154815250508282815181106127c557fe5b60209081029190910101526001016126c0565b6000818152607d602052604090205460ff16151560011461280b5760405162461bcd60e51b8152600401610b08906143fb565b612814816114ef565b6000818152607c60205260409020546001600160a01b0316331461284a5760405162461bcd60e51b8152600401610b08906144a0565b6000818152607d6020526040902060080154670de0b6b3a7640000901b348111156128875760405162461bcd60e51b8152600401610b0890614814565b6000828152607d60205260409081902060080180546001019055517f444d0a208ac492e147b2e0e5ffeeb6e6be2c122d95f3da8f45e26868785c84eb906128cf908490613e5f565b60405180910390a15050565b60608282036001600160401b03811180156128f557600080fd5b5060405190808252806020026020018201604052801561291f578160200160208202803683370190505b509050825b82811015610cbe576078818154811061293957fe5b9060005260206000200154828583038151811061295257fe5b6020908102919091010152600101612924565b607f602052816000526040600020818154811061297e57fe5b6000918252602090912060049091020180546001820154600283015460039093015491945060ff16925084565b607881815481106113fd57fe5b60606037805480602002602001604051908101604052809291908181526020018280548015610d135760200282019190600052602060002090815481526020019060010190808311610cff575050505050905090565b60388181548110612a1b57fe5b60009182526020918290206009919091020180546040805160026001841615610100026000190190931692909204601f810185900485028301850190915280825291935091839190830182828015612ab45780601f10612a8957610100808354040283529160200191612ab4565b820191906000526020600020905b815481529060010190602001808311612a9757829003601f168201915b5050505050908060010154908060020154908060030154908060040154908060050154908060060154908060070154908060080154905089565b607b5481565b60798181548110612b0157fe5b6000918252602090912001546001600160a01b0316905081565b60785490565b7dc19139cb84c680a6e14116da06056174a0cfa121e6e5c2450f87d64fc0001190565b60398260038110612b5157fe5b601402018160048110612b6057fe5b600502018054600182015460028301546003840154600490940154929550909350919085565b607d6020526000908152604090208054600182015460028301546003840154600485015460058601546006870154600788015460089098015460ff9788169896979596949590931693919290919089565b603454600160a01b900460ff1615612c015760405162461bcd60e51b8152600401610b089061477e565b6075544210612c225760405162461bcd60e51b8152600401610b0890614372565b6000828152607d602052604090205460ff161515600114612c555760405162461bcd60e51b8152600401610b08906143fb565b612c5e826114ef565b6000828152607c60205260409020546001600160a01b03163314612c945760405162461bcd60e51b8152600401610b0890614518565b612c9e82826117ee565b15612cbb5760405162461bcd60e51b8152600401610b08906147a6565b6000828152607d602090815260408083206009018054600181018255908452919092200180546001600160a01b0319166001600160a01b038416179055517f843a291790c6bf4cb530efd7a7338dbef8bb1c23d50f1fbf31e0e784a45315d3906128cf908490849061493e565b60606000805b6000848152607f6020526040902054811015612d92576000848152607f60205260408120805483908110612d5e57fe5b600091825260209091206001600490920201015460ff168015612d7d57fe5b1415612d8a576001820191505b600101612d2e565b50806001600160401b0381118015612da957600080fd5b50604051908082528060200260200182016040528015612de357816020015b612dd06135c6565b815260200190600190039081612dc85790505b5091506000805b6000858152607f6020526040902054811015612f05576000858152607f60205260408120805483908110612e1a57fe5b600091825260209091206001600490920201015460ff168015612e3957fe5b1415612efd576000858152607f602052604081208054608092919084908110612e5e57fe5b600091825260208083206004928302015484528381019490945260409283019091208251610100810184528154815260018201546001600160a01b031694810194909452600281015492840192909252600382015460608401528101546080830152600581015460a0830152600681015460c08301526007015460e08201528451859084908110612eeb57fe5b60209081029190910101526001909101905b600101612dea565b505050919050565b61400081565b600054610100900460ff1680612f2c5750612f2c613483565b80612f3a575060005460ff16155b612f565760405162461bcd60e51b8152600401610b08906146f9565b600054610100900460ff16158015612f81576000805460ff1961ff0019909116610100171660011790555b603380546001600160a01b038087166001600160a01b03199283161790925560348054851515600160a81b0261ffff60a01b1994881691909316179290921617905563652d3ec06075556032607655600c607755604080516101008101825263010000008152623fffd06020820152620fffc4918101919091526203ffc1606082015261ffc06080820152613fc060a0820152610fc060c08201526103c060e08201526130329060359060086136b6565b50604051635dfd086d60e01b815273__DarkForestInitialize__________________90635dfd086d9061306b90603890600401613e5f565b60006040518083038186803b15801561308357600080fd5b505af4158015613097573d6000803e3d6000fd5b505060405163e771ed6b60e01b815273__DarkForestInitialize__________________925063e771ed6b91506130d390603990600401613e5f565b60006040518083038186803b1580156130eb57600080fd5b505af41580156130ff573d6000803e3d6000fd5b50506040805161010081018252600080825260208201819052918101829052606081018290526080810182905260a0810182905260c0810182905260e08101919091526131529250603791506008613709565b5060005b6035548110156131ad5760366140006035838154811061317257fe5b906000526020600020015463010000008161318957fe5b83546001818101865560009586526020909520929091049290920291015501613156565b506131b66133e7565b80156131c8576000805461ff00191690555b50505050565b606481565b6033546001600160a01b031681565b600f81565b6131f083612b21565b61320c5760405162461bcd60e51b8152600401610b0890614747565b60008073__DarkForestUtils_______________________6339818ecc8686600f60116008806004603560386040518a63ffffffff1660e01b815260040161325c99989796959493929190614a3b565b604080518083038186803b15801561327357600080fd5b505af4158015613287573d6000803e3d6000fd5b505050506040513d601f19601f820116820180604052508101906132ab9190613af7565b9150915082156132d35781156132d35760405162461bcd60e51b8152600401610b089061467d565b6000858152607c60209081526040808320607d9092529091206038805473__DarkForestPlanet______________________93639414ee0493909290918790811061331a57fe5b9060005260206000209060090201886064600f6011898b8f6040518b63ffffffff1660e01b81526004016133579a999897969594939291906148e7565b60006040518083038186803b15801561336f57600080fd5b505af4158015613383573d6000803e3d6000fd5b505060788054600181810183556000929092527f8dc6fb69531d98d70dc0420e638d2dfd04e09e1ec783ede9aac77da9c5a0dac401889055603780549193509150849081106133ce57fe5b6000918252602090912001805490910190555050505050565b60795460765460775460405163c30403df60e01b815273__DarkForestUtils_______________________9363c30403df9361342e9360379360369392919060040161427c565b60206040518083038186803b15801561344657600080fd5b505af415801561345a573d6000803e3d6000fd5b505050506040513d601f19601f8201168201806040525081019061347e9190613ab0565b607a55565b303b1590565b604051806101400160405280600015158152602001600081526020016000815260200160008152602001600060028111156134c057fe5b815260200160008152602001600081526020016000815260200160008152602001606081525090565b6040518061012001604052806060815260200160008152602001600081526020016000815260200160008152602001600081526020016000815260200160008152602001600081525090565b6040518060a001604052806005906020820280368337509192915050565b604051806101800160405280600081526020016000815260200160008152602001600081526020016000815260200160006001600160a01b0316815260200160008152602001600081526020016000815260200160006001600160a01b0316815260200160008152602001600081525090565b6040518061010001604052806000815260200160006001600160a01b031681526020016000815260200160008152602001600081526020016000815260200160008152602001600081525090565b60405180610180016040528060006001600160a01b031681526020016000815260200160008152602001600081526020016000815260200160008152602001600081526020016000600181111561366757fe5b8152602001600081526020016000815260200160008152602001600081525090565b60405180606001604052806003905b6136a0613749565b8152602001906001900390816136985790505090565b8280548282559060005260206000209081019282156136f9579160200282015b828111156136f9578251829063ffffffff169055916020019190600101906136d6565b50613705929150613776565b5090565b8280548282559060005260206000209081019282156136f9579160200282015b828111156136f9578251829060ff16905591602001919060010190613729565b60405180608001604052806004905b61376061378b565b8152602001906001900390816137585790505090565b5b808211156137055760008155600101613777565b6040518060a0016040528060008152602001600081526020016000815260200160008152602001600081525090565b600082601f8301126137ca578081fd5b60406137d581614a7a565b91508183856080860111156137e957600080fd5b60005b6002811015613813576137ff878361381d565b8352602090920191908301906001016137ec565b5050505092915050565b600082601f83011261382d578081fd5b6138376040614a7a565b905080828460408501111561384b57600080fd5b60005b600281101561386d57813583526020928301929091019060010161384e565b50505092915050565b600060208284031215613887578081fd5b813561187d81614aaa565b6000806000606084860312156138a6578182fd5b83356138b181614aaa565b925060208401356138c181614aaa565b915060408401356138d181614abf565b809150509250925092565b6000806000806101608086880312156138f3578182fd5b6138fd878761381d565b945061390c87604088016137ba565b935061391b8760c0880161381d565b92508661011f87011261392c578182fd5b6139366060614a7a565b80610100880189848a01111561394a578485fd5b8493505b600384101561396e5780358352600193909301926020928301920161394e565b509598949750929550505050565b6000806000806101e0808688031215613993578485fd5b61399d878761381d565b94506139ac87604088016137ba565b93506139bb8760c0880161381d565b92508661011f8701126139cc578182fd5b6139d660e0614a7a565b80610100880189848a0111156139ea578485fd5b8493505b600784101561396e578035835260019390930192602092830192016139ee565b60008060208385031215613a20578182fd5b82356001600160401b0380821115613a36578384fd5b818501915085601f830112613a49578384fd5b813581811115613a57578485fd5b8660208083028501011115613a6a578485fd5b60209290920196919550909350505050565b600060208284031215613a8d578081fd5b815161187d81614abf565b600060208284031215613aa9578081fd5b5035919050565b600060208284031215613ac1578081fd5b5051919050565b60008060408385031215613ada578182fd5b823591506020830135613aec81614aaa565b809150509250929050565b60008060408385031215613b09578081fd5b82519150602083015160028110613aec578182fd5b60008060408385031215613b30578182fd5b50508035926020909101359150565b6001600160a01b03169052565b6000815180845260208085019450808401835b83811015613b845781516001600160a01b031687529582019590820190600101613b5f565b509495945050505050565b8060005b60028110156131c857613ba7848351613c3e565b6040939093019260209190910190600101613b93565b6000815180845260208085019450808401835b83811015613b8457815180518852838101516001600160a01b03168489015260408082015190890152606080820151908901526080808201519089015260a0808201519089015260c0808201519089015260e090810151908801526101009096019590820190600101613bd0565b8060005b60028110156131c8578151845260209384019390910190600101613c42565b15159052565b60028110613c7157fe5b9052565b613c7181614aa0565b60008151808452815b81811015613ca357602081850181015186830182015201613c87565b81811115613cb45782602083870101525b50601f01601f19169290920160200192915050565b6001600160a01b0391909116815260200190565b6001600160a01b03929092168252602082015260400190565b6001600160a01b038d168152602081018c9052604081018b9052606081018a90526080810189905260a0810188905260c08101879052610180810160028710613d3b57fe5b60e082019690965261010081019490945261012084019290925261014083015261016090910152979650505050505050565b60006020825261187d6020830184613b4c565b6000602080830181845280855180835260408601915060408482028701019250838701855b82811015613dd357603f19888603018452613dc1858351613bbd565b94509285019290850190600101613da5565b5092979650505050505050565b610780810181836000805b600381101561381357825184835b6004811015613e4557825180518352602080820151818501526040808301519085015260608083015190850152608091820151918401919091529092019160a090910190600101613df9565b505050610280939093019260209290920191600101613deb565b90815260200190565b60006020825261187d6020830184613bbd565b602080825282518282018190526000919060409081850190868401855b82811015613f3b5781518051855286810151878601528581015186860152606080820151908601526080808201519086015260a080820151613edc82880182613b3f565b505060c0818101519086015260e08082015190860152610100808201519086015261012080820151613f1082880182613b3f565b5050610140818101519086015261016090810151908501526101809093019290850190600101613e98565b5091979650505050505050565b60208082528251828201819052600091906040908185019080840286018301878501865b83811015613ff657603f1989840301855281516101208151818652613f9382870182613c7e565b838b0151878c0152898401518a880152606080850151908801526080808501519088015260a0808501519088015260c0808501519088015260e0808501519088015261010093840151939096019290925250509386019390860190600101613f6c565b509098975050505050505050565b60208082528251828201819052600091906040908185019080840286018301878501865b83811015613ff657603f198984030185528151610140614049858351613c61565b81890151858a015287820151888601526060808301519086015260808083015161407582880182613c75565b505060a0828101519086015260c0808301519086015260e080830151908601526101008083015190860152610120918201519185018190526140b981860183613b4c565b968901969450505090860190600101614028565b602080825282518282018190526000919060409081850190868401855b82811015613f3b5781516140ff858251613b3f565b80870151858801528581015186860152606080820151908601526080808201519086015260a0808201519086015260c0808201519086015260e08082015161414982880182613c67565b5050610100818101519086015261012080820151908601526101408082015190860152610160908101519085015261018090930192908501906001016140ea565b61016081016141998287613c3e565b6141a66040830186613b8f565b6141b360c0830185613c3e565b61010082018360005b60038110156141db5781518352602092830192909101906001016141bc565b50505095945050505050565b6101a081016141f68287613c3e565b6142036040830186613b8f565b61421060c0830185613c3e565b61010082018360005b60058110156141db578151835260209283019290910190600101614219565b6020808252825182820181905260009190848201906040850190845b8181101561427057835183529284019291840191600101614254565b50909695505050505050565b948552602085019390935260408401919091526060830152608082015260a00190565b901515815260200190565b6000610120820190508a151582528960208301528860408301528760608301526142d387614aa0565b608082019690965260a081019490945260c084019290925260e083015261010090910152949350505050565b92835260208301919091526001600160a01b0316604082015260600190565b60006101208083526143328184018d613c7e565b602084019b909b52505060408101979097526060870195909552608086019390935260a085019190915260c084015260e083015261010090910152919050565b6020808252600f908201526e11d85b59481a185d9948195b991959608a1b604082015260600190565b60208082526016908201527506e65774f776e65722063616e6e6f74206265203078360541b604082015260600190565b602080825260169082015275141b185b995d081a5cc81c985d194b5b1a5b5a5d195960521b604082015260600190565b60208082526019908201527f506c616e6574206973206e6f7420696e697469616c697a656400000000000000604082015260600190565b6020808252601b908201527f53656e646572206973206e6f7420612067616d65206d61737465720000000000604082015260600190565b6020808252601d908201527f506c6179657220697320616c726561647920696e697469616c697a6564000000604082015260600190565b60208082526021908201527f4f6e6c79206f776e65722063616e206275792068617420666f7220706c616e656040820152601d60fa1b606082015260800190565b60208082526017908201527f4661696c656420696e69742070726f6f6620636865636b000000000000000000604082015260600190565b6020808252601e908201527f4f6e6c79206f776e65722063616e2064656c656761746520706c616e65740000604082015260600190565b60208082526019908201527f506c61796572206973206e6f742077686974656c697374656400000000000000604082015260600190565b60208082526047908201527f496e6974206e6f7420616c6c6f77656420696e207065726c696e2076616c756560408201527f2067726561746572207468616e206f7220657175616c20746f207468652074686060820152661c995cda1bdb1960ca1b608082015260a00190565b60208082526033908201527f496e69742072616469757320697320626967676572207468616e207468652063604082015272757272656e7420776f726c642072616469757360681b606082015260800190565b6020808252601d908201527f506c616e657420697320616c726561647920696e697469616c697a6564000000604082015260600190565b60208082526025908201527f43616e206f6e6c7920696e697469616c697a65206f6e20706c616e6574206c65604082015264076656c20360dc1b606082015260800190565b60208082526017908201527f4661696c6564206d6f76652070726f6f6620636865636b000000000000000000604082015260600190565b6020808252602e908201527f436f6e747261637420696e7374616e63652068617320616c726561647920626560408201526d195b881a5b9a5d1a585b1a5e995960921b606082015260800190565b6020808252601b908201527f4e6f7420612076616c696420706c616e6574206c6f636174696f6e0000000000604082015260600190565b6020808252600e908201526d11d85b59481a5cc81c185d5cd95960921b604082015260600190565b60208082526018908201527f506c616e657420616c72656164792064656c6567617465640000000000000000604082015260600190565b60208082526017908201527f506c616e6574206973206e6f742064656c656761746564000000000000000000604082015260600190565b60208082526017908201527f496e73756666696369656e742076616c75652073656e74000000000000000000604082015260600190565b60208082526018908201527f47616d6520697320616c726561647920756e7061757365640000000000000000604082015260600190565b6020808252818101527f417474656d7074696e6720746f206d6f7665206f7574206f6620626f756e6473604082015260600190565b60208082526016908201527511d85b59481a5cc8185b1c9958591e481c185d5cd95960521b604082015260600190565b6000610140820190508b82528a60208301528960408301528860608301528760808301528660a08301528560c083015261492460e0830186613c67565b610100820193909352610120015298975050505050505050565b9182526001600160a01b0316602082015260400190565b9788526001600160a01b0396909616602088015260408701949094526060860192909252608085015260a084015260c083015260e08201526101000190565b84815260808101600185106149a557fe5b84602083015283604083015282606083015295945050505050565b918252602082015260400190565b958652602086019490945260408501929092526060840152608083015260a082015260c00190565b998a5260208a019890985260408901969096526060880194909452608087019290925260a086015260c085015260e08401526101008301526101208201526101400190565b988952602089019790975260408801959095526060870193909352608086019190915260a085015260c084015260e08301526101008201526101200190565b6040518181016001600160401b0381118282101715614a9857600080fd5b604052919050565b600381106114ec57fe5b6001600160a01b03811681146114ec57600080fd5b80151581146114ec57600080fdfea2646970667358221220af41e8abe07b28a10f8ec1a44f8af18c118a5fe606a122331df2a00b9317adf264736f6c634300060c0033",
  "compiler": {
    "name": "solc",
    "version": "0.6.12+commit.27d51765.Emscripten.clang",
    "optimizer": {
      "enabled": true,
      "runs": 200
    },
    "evmVersion": "petersburg"
  }
}