{
    "_format": "hh-sol-artifact-1",
    "contractName": "DarkForestTokens",
    "sourceName": "contracts/DarkForestTokens.sol",
    "abi": [
        {
            "anonymous": false,
            "inputs": [
                {
                    "indexed": true,
                    "internalType": "address",
                    "name": "owner",
                    "type": "address"
                },
                {
                    "indexed": true,
                    "internalType": "address",
                    "name": "approved",
                    "type": "address"
                },
                {
                    "indexed": true,
                    "internalType": "uint256",
                    "name": "tokenId",
                    "type": "uint256"
                }
            ],
            "name": "Approval",
            "type": "event"
        },
        {
            "anonymous": false,
            "inputs": [
                {
                    "indexed": true,
                    "internalType": "address",
                    "name": "owner",
                    "type": "address"
                },
                {
                    "indexed": true,
                    "internalType": "address",
                    "name": "operator",
                    "type": "address"
                },
                {
                    "indexed": false,
                    "internalType": "bool",
                    "name": "approved",
                    "type": "bool"
                }
            ],
            "name": "ApprovalForAll",
            "type": "event"
        },
        {
            "anonymous": false,
            "inputs": [
                {
                    "indexed": true,
                    "internalType": "address",
                    "name": "from",
                    "type": "address"
                },
                {
                    "indexed": true,
                    "internalType": "address",
                    "name": "to",
                    "type": "address"
                },
                {
                    "indexed": true,
                    "internalType": "uint256",
                    "name": "tokenId",
                    "type": "uint256"
                }
            ],
            "name": "Transfer",
            "type": "event"
        },
        {
            "inputs": [
                {
                    "internalType": "address",
                    "name": "to",
                    "type": "address"
                },
                {
                    "internalType": "uint256",
                    "name": "tokenId",
                    "type": "uint256"
                }
            ],
            "name": "approve",
            "outputs": [],
            "stateMutability": "nonpayable",
            "type": "function"
        },
        {
            "inputs": [
                {
                    "internalType": "address",
                    "name": "owner",
                    "type": "address"
                }
            ],
            "name": "balanceOf",
            "outputs": [
                {
                    "internalType": "uint256",
                    "name": "",
                    "type": "uint256"
                }
            ],
            "stateMutability": "view",
            "type": "function"
        },
        {
            "inputs": [],
            "name": "baseURI",
            "outputs": [
                {
                    "internalType": "string",
                    "name": "",
                    "type": "string"
                }
            ],
            "stateMutability": "view",
            "type": "function"
        },
        {
            "inputs": [
                {
                    "internalType": "uint256",
                    "name": "tokenId",
                    "type": "uint256"
                },
                {
                    "internalType": "address",
                    "name": "discoverer",
                    "type": "address"
                },
                {
                    "internalType": "uint256",
                    "name": "planetId",
                    "type": "uint256"
                },
                {
                    "internalType": "enum DarkForestTypes.ArtifactRarity",
                    "name": "rarity",
                    "type": "uint8"
                },
                {
                    "internalType": "enum DarkForestTypes.Biome",
                    "name": "biome",
                    "type": "uint8"
                },
                {
                    "internalType": "enum DarkForestTypes.ArtifactType",
                    "name": "artifactType",
                    "type": "uint8"
                },
                {
                    "internalType": "address",
                    "name": "owner",
                    "type": "address"
                }
            ],
            "name": "createArtifact",
            "outputs": [
                {
                    "components": [
                        {
                            "internalType": "bool",
                            "name": "isInitialized",
                            "type": "bool"
                        },
                        {
                            "internalType": "uint256",
                            "name": "id",
                            "type": "uint256"
                        },
                        {
                            "internalType": "uint256",
                            "name": "planetDiscoveredOn",
                            "type": "uint256"
                        },
                        {
                            "internalType": "enum DarkForestTypes.ArtifactRarity",
                            "name": "rarity",
                            "type": "uint8"
                        },
                        {
                            "internalType": "enum DarkForestTypes.Biome",
                            "name": "planetBiome",
                            "type": "uint8"
                        },
                        {
                            "internalType": "uint256",
                            "name": "mintedAtTimestamp",
                            "type": "uint256"
                        },
                        {
                            "internalType": "address",
                            "name": "discoverer",
                            "type": "address"
                        },
                        {
                            "internalType": "enum DarkForestTypes.ArtifactType",
                            "name": "artifactType",
                            "type": "uint8"
                        },
                        {
                            "internalType": "uint256",
                            "name": "lastActivated",
                            "type": "uint256"
                        },
                        {
                            "internalType": "uint256",
                            "name": "lastDeactivated",
                            "type": "uint256"
                        },
                        {
                            "internalType": "uint256",
                            "name": "wormholeTo",
                            "type": "uint256"
                        }
                    ],
                    "internalType": "struct DarkForestTypes.Artifact",
                    "name": "",
                    "type": "tuple"
                }
            ],
            "stateMutability": "nonpayable",
            "type": "function"
        },
        {
            "inputs": [
                {
                    "internalType": "uint256",
                    "name": "tokenId",
                    "type": "uint256"
                }
            ],
            "name": "doesArtifactExist",
            "outputs": [
                {
                    "internalType": "bool",
                    "name": "",
                    "type": "bool"
                }
            ],
            "stateMutability": "view",
            "type": "function"
        },
        {
            "inputs": [
                {
                    "internalType": "uint256",
                    "name": "tokenId",
                    "type": "uint256"
                }
            ],
            "name": "getApproved",
            "outputs": [
                {
                    "internalType": "address",
                    "name": "",
                    "type": "address"
                }
            ],
            "stateMutability": "view",
            "type": "function"
        },
        {
            "inputs": [
                {
                    "internalType": "uint256",
                    "name": "tokenId",
                    "type": "uint256"
                }
            ],
            "name": "getArtifact",
            "outputs": [
                {
                    "components": [
                        {
                            "internalType": "bool",
                            "name": "isInitialized",
                            "type": "bool"
                        },
                        {
                            "internalType": "uint256",
                            "name": "id",
                            "type": "uint256"
                        },
                        {
                            "internalType": "uint256",
                            "name": "planetDiscoveredOn",
                            "type": "uint256"
                        },
                        {
                            "internalType": "enum DarkForestTypes.ArtifactRarity",
                            "name": "rarity",
                            "type": "uint8"
                        },
                        {
                            "internalType": "enum DarkForestTypes.Biome",
                            "name": "planetBiome",
                            "type": "uint8"
                        },
                        {
                            "internalType": "uint256",
                            "name": "mintedAtTimestamp",
                            "type": "uint256"
                        },
                        {
                            "internalType": "address",
                            "name": "discoverer",
                            "type": "address"
                        },
                        {
                            "internalType": "enum DarkForestTypes.ArtifactType",
                            "name": "artifactType",
                            "type": "uint8"
                        },
                        {
                            "internalType": "uint256",
                            "name": "lastActivated",
                            "type": "uint256"
                        },
                        {
                            "internalType": "uint256",
                            "name": "lastDeactivated",
                            "type": "uint256"
                        },
                        {
                            "internalType": "uint256",
                            "name": "wormholeTo",
                            "type": "uint256"
                        }
                    ],
                    "internalType": "struct DarkForestTypes.Artifact",
                    "name": "",
                    "type": "tuple"
                }
            ],
            "stateMutability": "view",
            "type": "function"
        },
        {
            "inputs": [
                {
                    "internalType": "address",
                    "name": "playerId",
                    "type": "address"
                }
            ],
            "name": "getPlayerArtifactIds",
            "outputs": [
                {
                    "internalType": "uint256[]",
                    "name": "",
                    "type": "uint256[]"
                }
            ],
            "stateMutability": "view",
            "type": "function"
        },
        {
            "inputs": [
                {
                    "internalType": "address",
                    "name": "_coreAddress",
                    "type": "address"
                },
                {
                    "internalType": "address",
                    "name": "_adminAddress",
                    "type": "address"
                }
            ],
            "name": "initialize",
            "outputs": [],
            "stateMutability": "nonpayable",
            "type": "function"
        },
        {
            "inputs": [
                {
                    "internalType": "address",
                    "name": "owner",
                    "type": "address"
                },
                {
                    "internalType": "address",
                    "name": "operator",
                    "type": "address"
                }
            ],
            "name": "isApprovedForAll",
            "outputs": [
                {
                    "internalType": "bool",
                    "name": "",
                    "type": "bool"
                }
            ],
            "stateMutability": "view",
            "type": "function"
        },
        {
            "inputs": [],
            "name": "name",
            "outputs": [
                {
                    "internalType": "string",
                    "name": "",
                    "type": "string"
                }
            ],
            "stateMutability": "view",
            "type": "function"
        },
        {
            "inputs": [
                {
                    "internalType": "uint256",
                    "name": "tokenId",
                    "type": "uint256"
                }
            ],
            "name": "ownerOf",
            "outputs": [
                {
                    "internalType": "address",
                    "name": "",
                    "type": "address"
                }
            ],
            "stateMutability": "view",
            "type": "function"
        },
        {
            "inputs": [
                {
                    "internalType": "address",
                    "name": "from",
                    "type": "address"
                },
                {
                    "internalType": "address",
                    "name": "to",
                    "type": "address"
                },
                {
                    "internalType": "uint256",
                    "name": "tokenId",
                    "type": "uint256"
                }
            ],
            "name": "safeTransferFrom",
            "outputs": [],
            "stateMutability": "nonpayable",
            "type": "function"
        },
        {
            "inputs": [
                {
                    "internalType": "address",
                    "name": "from",
                    "type": "address"
                },
                {
                    "internalType": "address",
                    "name": "to",
                    "type": "address"
                },
                {
                    "internalType": "uint256",
                    "name": "tokenId",
                    "type": "uint256"
                },
                {
                    "internalType": "bytes",
                    "name": "_data",
                    "type": "bytes"
                }
            ],
            "name": "safeTransferFrom",
            "outputs": [],
            "stateMutability": "nonpayable",
            "type": "function"
        },
        {
            "inputs": [
                {
                    "internalType": "address",
                    "name": "operator",
                    "type": "address"
                },
                {
                    "internalType": "bool",
                    "name": "approved",
                    "type": "bool"
                }
            ],
            "name": "setApprovalForAll",
            "outputs": [],
            "stateMutability": "nonpayable",
            "type": "function"
        },
        {
            "inputs": [],
            "name": "setBaseUri",
            "outputs": [],
            "stateMutability": "nonpayable",
            "type": "function"
        },
        {
            "inputs": [
                {
                    "internalType": "bytes4",
                    "name": "interfaceId",
                    "type": "bytes4"
                }
            ],
            "name": "supportsInterface",
            "outputs": [
                {
                    "internalType": "bool",
                    "name": "",
                    "type": "bool"
                }
            ],
            "stateMutability": "view",
            "type": "function"
        },
        {
            "inputs": [],
            "name": "symbol",
            "outputs": [
                {
                    "internalType": "string",
                    "name": "",
                    "type": "string"
                }
            ],
            "stateMutability": "view",
            "type": "function"
        },
        {
            "inputs": [
                {
                    "internalType": "uint256",
                    "name": "index",
                    "type": "uint256"
                }
            ],
            "name": "tokenByIndex",
            "outputs": [
                {
                    "internalType": "uint256",
                    "name": "",
                    "type": "uint256"
                }
            ],
            "stateMutability": "view",
            "type": "function"
        },
        {
            "inputs": [
                {
                    "internalType": "address",
                    "name": "owner",
                    "type": "address"
                },
                {
                    "internalType": "uint256",
                    "name": "index",
                    "type": "uint256"
                }
            ],
            "name": "tokenOfOwnerByIndex",
            "outputs": [
                {
                    "internalType": "uint256",
                    "name": "",
                    "type": "uint256"
                }
            ],
            "stateMutability": "view",
            "type": "function"
        },
        {
            "inputs": [
                {
                    "internalType": "uint256",
                    "name": "tokenId",
                    "type": "uint256"
                }
            ],
            "name": "tokenURI",
            "outputs": [
                {
                    "internalType": "string",
                    "name": "",
                    "type": "string"
                }
            ],
            "stateMutability": "view",
            "type": "function"
        },
        {
            "inputs": [],
            "name": "totalSupply",
            "outputs": [
                {
                    "internalType": "uint256",
                    "name": "",
                    "type": "uint256"
                }
            ],
            "stateMutability": "view",
            "type": "function"
        },
        {
            "inputs": [
                {
                    "internalType": "uint256",
                    "name": "tokenId",
                    "type": "uint256"
                },
                {
                    "internalType": "address",
                    "name": "newOwner",
                    "type": "address"
                }
            ],
            "name": "transferArtifact",
            "outputs": [],
            "stateMutability": "nonpayable",
            "type": "function"
        },
        {
            "inputs": [
                {
                    "internalType": "address",
                    "name": "from",
                    "type": "address"
                },
                {
                    "internalType": "address",
                    "name": "to",
                    "type": "address"
                },
                {
                    "internalType": "uint256",
                    "name": "tokenId",
                    "type": "uint256"
                }
            ],
            "name": "transferFrom",
            "outputs": [],
            "stateMutability": "nonpayable",
            "type": "function"
        },
        {
            "inputs": [
                {
                    "components": [
                        {
                            "internalType": "bool",
                            "name": "isInitialized",
                            "type": "bool"
                        },
                        {
                            "internalType": "uint256",
                            "name": "id",
                            "type": "uint256"
                        },
                        {
                            "internalType": "uint256",
                            "name": "planetDiscoveredOn",
                            "type": "uint256"
                        },
                        {
                            "internalType": "enum DarkForestTypes.ArtifactRarity",
                            "name": "rarity",
                            "type": "uint8"
                        },
                        {
                            "internalType": "enum DarkForestTypes.Biome",
                            "name": "planetBiome",
                            "type": "uint8"
                        },
                        {
                            "internalType": "uint256",
                            "name": "mintedAtTimestamp",
                            "type": "uint256"
                        },
                        {
                            "internalType": "address",
                            "name": "discoverer",
                            "type": "address"
                        },
                        {
                            "internalType": "enum DarkForestTypes.ArtifactType",
                            "name": "artifactType",
                            "type": "uint8"
                        },
                        {
                            "internalType": "uint256",
                            "name": "lastActivated",
                            "type": "uint256"
                        },
                        {
                            "internalType": "uint256",
                            "name": "lastDeactivated",
                            "type": "uint256"
                        },
                        {
                            "internalType": "uint256",
                            "name": "wormholeTo",
                            "type": "uint256"
                        }
                    ],
                    "internalType": "struct DarkForestTypes.Artifact",
                    "name": "updatedArtifact",
                    "type": "tuple"
                }
            ],
            "name": "updateArtifact",
            "outputs": [],
            "stateMutability": "nonpayable",
            "type": "function"
        }
    ],
    "bytecode": "0x608060405234801561001057600080fd5b5061282a806100206000396000f3fe608060405234801561001057600080fd5b50600436106101735760003560e01c80634f6ccce7116100de57806395d89b4111610097578063b88d4fde11610071578063b88d4fde14610334578063c87b56dd14610347578063e6a9616b1461035a578063e985e9c51461036257610173565b806395d89b4114610306578063991182da1461030e578063a22cb4651461032157610173565b80634f6ccce71461029f5780636352211e146102b25780636c0360eb146102c557806370a08231146102cd5780638465ad44146102e0578063868e2810146102f357610173565b806323b872dd1161013057806323b872dd146102135780632f745c5914610226578063314d1ff7146102395780633269eab01461025957806342842e0e14610279578063485cc9551461028c57610173565b806301ffc9a71461017857806306fdde03146101a1578063081812fc146101b6578063095ea7b3146101d657806318160ddd146101eb5780631f94f54014610200575b600080fd5b61018b610186366004611de2565b610375565b60405161019891906120d3565b60405180910390f35b6101a9610398565b60405161019891906120de565b6101c96101c4366004611ed4565b61042f565b604051610198919061203e565b6101e96101e4366004611db8565b61047b565b005b6101f3610513565b60405161019891906126ef565b61018b61020e366004611ed4565b610524565b6101e9610221366004611c97565b610535565b6101f3610234366004611db8565b61056d565b61024c610247366004611c48565b61059c565b604051610198919061208f565b61026c610267366004611f0f565b61062d565b6040516101989190612649565b6101e9610287366004611c97565b610808565b6101e961029a366004611c63565b610823565b6101f36102ad366004611ed4565b6108f9565b6101c96102c0366004611ed4565b61090d565b6101a961093b565b6101f36102db366004611c48565b61099c565b61026c6102ee366004611ed4565b6109e5565b6101e9610301366004611e1a565b610ae9565b6101a9610c51565b6101e961031c366004611eec565b610cb2565b6101e961032f366004611d8d565b610d24565b6101e9610342366004611cd7565b610df2565b6101a9610355366004611ed4565b610e31565b6101e9610f77565b61018b610370366004611c63565b610f9a565b6001600160e01b0319811660009081526033602052604090205460ff165b919050565b606a8054604080516020601f60026000196101006001881615020190951694909404938401819004810282018101909252828152606093909290918301828280156104245780601f106103f957610100808354040283529160200191610424565b820191906000526020600020905b81548152906001019060200180831161040757829003601f168201915b505050505090505b90565b600061043a82610fc8565b61045f5760405162461bcd60e51b81526004016104569061244c565b60405180910390fd5b506000908152606860205260409020546001600160a01b031690565b60006104868261090d565b9050806001600160a01b0316836001600160a01b031614156104ba5760405162461bcd60e51b815260040161045690612530565b806001600160a01b03166104cc610fdb565b6001600160a01b031614806104e857506104e881610370610fdb565b6105045760405162461bcd60e51b8152600401610456906122e0565b61050e8383610fdf565b505050565b600061051f606661104d565b905090565b600061052f82610fc8565b92915050565b610546610540610fdb565b82611058565b6105625760405162461bcd60e51b8152600401610456906125c1565b61050e8383836110dd565b6001600160a01b0382166000908152606560205260408120610595908363ffffffff6111fd16565b9392505050565b606060006105a98361099c565b905060608167ffffffffffffffff811180156105c457600080fd5b506040519080825280602002602001820160405280156105ee578160200160208202803683370190505b50905060005b8281101561062557610606858261056d565b82828151811061061257fe5b60209081029190910101526001016105f4565b509392505050565b610635611ab8565b6097546001600160a01b031633148061065857506099546001600160a01b031633145b6106745760405162461bcd60e51b815260040161045690612283565b61067e8289611209565b610686611ab8565b6040518061016001604052806001151581526020018a81526020018881526020018760058111156106b357fe5b815260200186600a8111156106c457fe5b8152602001428152602001896001600160a01b031681526020018560098111156106ea57fe5b815260006020808301829052604080840183905260609384018390528d835260988252918290208451815490151560ff199182161782559185015160018083019190915592850151600282015592840151600384018054959650869591939092919091169083600581111561075b57fe5b0217905550608082015160038201805461ff00191661010083600a81111561077f57fe5b021790555060a0820151600482015560c08201516005820180546001600160a01b0319166001600160a01b039092169190911780825560e0840151919060ff60a01b1916600160a01b8360098111156107d457fe5b0217905550610100820151600682015561012082015160078201556101409091015160089091015598975050505050505050565b61050e83838360405180602001604052806000815250610df2565b600054610100900460ff168061083c575061083c6112d9565b8061084a575060005460ff16155b6108665760405162461bcd60e51b815260040161045690612387565b600054610100900460ff16158015610891576000805460ff1961ff0019909116610100171660011790555b609780546001600160a01b038086166001600160a01b0319928316179092556099805492851692909116919091179055604080516060810190915260238082526108e391906127a960208301396112ea565b801561050e576000805461ff0019169055505050565b60008061062560668463ffffffff6112fd16565b600061052f826040518060600160405280602981526020016127cc602991396066919063ffffffff61131916565b606d8054604080516020601f60026000196101006001881615020190951694909404938401819004810282018101909252828152606093909290918301828280156104245780601f106103f957610100808354040283529160200191610424565b60006001600160a01b0382166109c45760405162461bcd60e51b81526004016104569061233d565b6001600160a01b038216600090815260656020526040902061052f9061104d565b6109ed611ab8565b600082815260986020908152604091829020825161016081018452815460ff90811615158252600183015493820193909352600282015493810193909352600381015490916060840191166005811115610a4357fe5b6005811115610a4e57fe5b81526020016003820160019054906101000a900460ff16600a811115610a7057fe5b600a811115610a7b57fe5b81526004820154602082015260058201546001600160a01b0381166040830152606090910190600160a01b900460ff166009811115610ab657fe5b6009811115610ac157fe5b8152600682015460208201526007820154604082015260089091015460609091015292915050565b6097546001600160a01b0316331480610b0c57506099546001600160a01b031633145b610b285760405162461bcd60e51b815260040161045690612283565b610b358160200151610fc8565b610b515760405162461bcd60e51b815260040161045690612571565b60208082018051600090815260989092526040918290208351815490151560ff199182161782559151600180830191909155928401516002820155606084015160038201805486959394929391921690836005811115610bad57fe5b0217905550608082015160038201805461ff00191661010083600a811115610bd157fe5b021790555060a0820151600482015560c08201516005820180546001600160a01b0319166001600160a01b039092169190911780825560e0840151919060ff60a01b1916600160a01b836009811115610c2657fe5b0217905550610100820151600682015561012082015160078201556101409091015160089091015550565b606b8054604080516020601f60026000196101006001881615020190951694909404938401819004810282018101909252828152606093909290918301828280156104245780601f106103f957610100808354040283529160200191610424565b6097546001600160a01b0316331480610cd557506099546001600160a01b031633145b610cf15760405162461bcd60e51b815260040161045690612283565b6001600160a01b038116610d0d57610d0882611326565b610d20565b610d20610d198361090d565b82846110dd565b5050565b610d2c610fdb565b6001600160a01b0316826001600160a01b03161415610d5d5760405162461bcd60e51b815260040161045690612200565b8060696000610d6a610fdb565b6001600160a01b03908116825260208083019390935260409182016000908120918716808252919093529120805460ff191692151592909217909155610dae610fdb565b6001600160a01b03167f17307eab39ab6107e8899845ad3d59bd9653f200f220920489ca2b5937696c3183604051610de691906120d3565b60405180910390a35050565b610e03610dfd610fdb565b83611058565b610e1f5760405162461bcd60e51b8152600401610456906125c1565b610e2b848484846113ff565b50505050565b6060610e3c82610fc8565b610e585760405162461bcd60e51b8152600401610456906124e1565b6000828152606c602090815260409182902080548351601f6002600019610100600186161502019093169290920491820184900484028101840190945280845260609392830182828015610eed5780601f10610ec257610100808354040283529160200191610eed565b820191906000526020600020905b815481529060010190602001808311610ed057829003601f168201915b505050505090506060610efe61093b565b9050805160001415610f1257509050610393565b815115610f44578082604051602001610f2c929190612010565b60405160208183030381529060405292505050610393565b80610f4e85611432565b604051602001610f5f929190612010565b60405160208183030381529060405292505050919050565b610f986040518060600160405280602381526020016127a9602391396112ea565b565b6001600160a01b03918216600090815260696020908152604080832093909416825291909152205460ff1690565b600061052f60668363ffffffff61150d16565b3390565b600081815260686020526040902080546001600160a01b0319166001600160a01b03841690811790915581906110148261090d565b6001600160a01b03167f8c5be1e5ebec7d5bd14f71427d1e84f3dd0314c0f7b2291e5b200ac8c7c3b92560405160405180910390a45050565b600061052f82611519565b600061106382610fc8565b61107f5760405162461bcd60e51b815260040161045690612237565b600061108a8361090d565b9050806001600160a01b0316846001600160a01b031614806110c55750836001600160a01b03166110ba8461042f565b6001600160a01b0316145b806110d557506110d58185610f9a565b949350505050565b826001600160a01b03166110f08261090d565b6001600160a01b0316146111165760405162461bcd60e51b815260040161045690612498565b6001600160a01b03821661113c5760405162461bcd60e51b8152600401610456906121bc565b61114783838361050e565b611152600082610fdf565b6001600160a01b038316600090815260656020526040902061117a908263ffffffff61151d16565b506001600160a01b03821660009081526065602052604090206111a3908263ffffffff61152916565b506111b66066828463ffffffff61153516565b5080826001600160a01b0316846001600160a01b03167fddf252ad1be2c89b69c2b068fc378daa952ba7f163c4a11628f55a4df523b3ef60405160405180910390a4505050565b6000610595838361154b565b6001600160a01b03821661122f5760405162461bcd60e51b815260040161045690612417565b61123881610fc8565b156112555760405162461bcd60e51b815260040161045690612185565b6112616000838361050e565b6001600160a01b0382166000908152606560205260409020611289908263ffffffff61152916565b5061129c6066828463ffffffff61153516565b5060405181906001600160a01b038416906000907fddf252ad1be2c89b69c2b068fc378daa952ba7f163c4a11628f55a4df523b3ef908290a45050565b60006112e430611590565b15905090565b8051610d2090606d906020840190611b15565b600080808061130c8686611596565b9097909650945050505050565b60006110d58484846115f2565b60006113318261090d565b905061133f8160008461050e565b61134a600083610fdf565b6000828152606c60205260409020546002600019610100600184161502019091160415611388576000828152606c6020526040812061138891611b93565b6001600160a01b03811660009081526065602052604090206113b0908363ffffffff61151d16565b506113c260668363ffffffff61165116565b5060405182906000906001600160a01b038416907fddf252ad1be2c89b69c2b068fc378daa952ba7f163c4a11628f55a4df523b3ef908390a45050565b61140a8484846110dd565b6114168484848461165d565b610e2b5760405162461bcd60e51b815260040161045690612133565b60608161145757506040805180820190915260018152600360fc1b6020820152610393565b8160005b811561146f57600101600a8204915061145b565b60608167ffffffffffffffff8111801561148857600080fd5b506040519080825280601f01601f1916602001820160405280156114b3576020820181803683370190505b50859350905060001982015b831561150457600a840660300160f81b828280600190039350815181106114e257fe5b60200101906001600160f81b031916908160001a905350600a840493506114bf565b50949350505050565b60006105958383611742565b5490565b6000610595838361175a565b60006105958383611820565b60006110d584846001600160a01b03851661186a565b8154600090821061156e5760405162461bcd60e51b8152600401610456906120f1565b82600001828154811061157d57fe5b9060005260206000200154905092915050565b3b151590565b8154600090819083106115bb5760405162461bcd60e51b8152600401610456906123d5565b60008460000184815481106115cc57fe5b906000526020600020906002020190508060000154816001015492509250509250929050565b600082815260018401602052604081205482816116225760405162461bcd60e51b815260040161045691906120de565b5084600001600182038154811061163557fe5b9060005260206000209060020201600101549150509392505050565b60006105958383611901565b6000611671846001600160a01b0316611590565b61167d575060016110d5565b606061170b630a85bd0160e11b611692610fdb565b8887876040516024016116a89493929190612052565b604051602081830303815290604052906001600160e01b0319166020820180516001600160e01b038381831617835250505050604051806060016040528060328152602001612777603291396001600160a01b038816919063ffffffff6119d516565b90506000818060200190518101906117239190611dfe565b6001600160e01b031916630a85bd0160e11b1492505050949350505050565b60009081526001919091016020526040902054151590565b60008181526001830160205260408120548015611816578354600019808301919081019060009087908390811061178d57fe5b90600052602060002001549050808760000184815481106117aa57fe5b6000918252602080832090910192909255828152600189810190925260409020908401905586548790806117da57fe5b6001900381819060005260206000200160009055905586600101600087815260200190815260200160002060009055600194505050505061052f565b600091505061052f565b600061182c8383611742565b6118625750815460018181018455600084815260208082209093018490558454848252828601909352604090209190915561052f565b50600061052f565b6000828152600184016020526040812054806118cf575050604080518082018252838152602080820184815286546001818101895560008981528481209551600290930290950191825591519082015586548684528188019092529290912055610595565b828560000160018303815481106118e257fe5b9060005260206000209060020201600101819055506000915050610595565b60008181526001830160205260408120548015611816578354600019808301919081019060009087908390811061193457fe5b906000526020600020906002020190508087600001848154811061195457fe5b60009182526020808320845460029093020191825560019384015491840191909155835482528983019052604090209084019055865487908061199357fe5b600082815260208082206002600019909401938402018281556001908101839055929093558881528982019092526040822091909155945061052f9350505050565b60606110d58484600085856119e985611590565b611a055760405162461bcd60e51b815260040161045690612612565b60006060866001600160a01b03168587604051611a229190611ff4565b60006040518083038185875af1925050503d8060008114611a5f576040519150601f19603f3d011682016040523d82523d6000602084013e611a64565b606091505b5091509150611a74828286611a7f565b979650505050505050565b60608315611a8e575081610595565b825115611a9e5782518084602001fd5b8160405162461bcd60e51b815260040161045691906120de565b60408051610160810182526000808252602082018190529181018290529060608201908152602001600081526000602082018190526040820181905260609091019081526020016000815260200160008152602001600081525090565b828054600181600116156101000203166002900490600052602060002090601f016020900481019282601f10611b5657805160ff1916838001178555611b83565b82800160010185558215611b83579182015b82811115611b83578251825591602001919060010190611b68565b50611b8f929150611bda565b5090565b50805460018160011615610100020316600290046000825580601f10611bb95750611bd7565b601f016020900490600052602060002090810190611bd79190611bda565b50565b61042c91905b80821115611b8f5760008155600101611be0565b80356001600160a01b038116811461052f57600080fd5b8035801515811461052f57600080fd5b80356006811061052f57600080fd5b8035600a811061052f57600080fd5b8035600b811061052f57600080fd5b600060208284031215611c59578081fd5b6105958383611bf4565b60008060408385031215611c75578081fd5b611c7f8484611bf4565b9150611c8e8460208501611bf4565b90509250929050565b600080600060608486031215611cab578081fd5b8335611cb68161274b565b92506020840135611cc68161274b565b929592945050506040919091013590565b60008060008060808587031215611cec578081fd5b611cf68686611bf4565b93506020611d0687828801611bf4565b935060408601359250606086013567ffffffffffffffff80821115611d29578384fd5b81880189601f820112611d3a578485fd5b8035925081831115611d4a578485fd5b611d5c601f8401601f191685016126f8565b91508282528984848301011115611d71578485fd5b8284820185840137509081019091019190915292959194509250565b60008060408385031215611d9f578182fd5b611da98484611bf4565b9150611c8e8460208501611c0b565b60008060408385031215611dca578182fd5b611dd48484611bf4565b946020939093013593505050565b600060208284031215611df3578081fd5b813561059581612760565b600060208284031215611e0f578081fd5b815161059581612760565b6000610160808385031215611e2d578182fd5b611e36816126f8565b611e408585611c0b565b81526020840135602082015260408401356040820152611e638560608601611c1b565b6060820152611e758560808601611c39565b608082015260a084013560a0820152611e918560c08601611bf4565b60c0820152611ea38560e08601611c2a565b60e0820152610100848101359082015261012080850135908201526101409384013593810193909352509092915050565b600060208284031215611ee5578081fd5b5035919050565b60008060408385031215611efe578182fd5b82359150611c8e8460208501611bf4565b600080600080600080600060e0888a031215611f29578283fd5b87359650611f3a8960208a01611bf4565b955060408801359450606088013560068110611f54578384fd5b93506080880135600b8110611f67578384fd5b9250611f768960a08a01611c2a565b9150611f858960c08a01611bf4565b905092959891949750929550565b6001600160a01b03169052565b15159052565b60008151808452611fbe81602086016020860161271f565b601f01601f19169290920160200192915050565b60068110611fdc57fe5b9052565b600a8110611fdc57fe5b600b8110611fdc57fe5b6000825161200681846020870161271f565b9190910192915050565b6000835161202281846020880161271f565b835190830161203582826020880161271f565b01949350505050565b6001600160a01b0391909116815260200190565b6001600160a01b038581168252841660208201526040810183905260806060820181905260009061208590830184611fa6565b9695505050505050565b6020808252825182820181905260009190848201906040850190845b818110156120c7578351835292840192918401916001016120ab565b50909695505050505050565b901515815260200190565b6000602082526105956020830184611fa6565b60208082526022908201527f456e756d657261626c655365743a20696e646578206f7574206f6620626f756e604082015261647360f01b606082015260800190565b60208082526032908201527f4552433732313a207472616e7366657220746f206e6f6e20455243373231526560408201527131b2b4bb32b91034b6b83632b6b2b73a32b960711b606082015260800190565b6020808252601c908201527f4552433732313a20746f6b656e20616c7265616479206d696e74656400000000604082015260600190565b60208082526024908201527f4552433732313a207472616e7366657220746f20746865207a65726f206164646040820152637265737360e01b606082015260800190565b60208082526019908201527f4552433732313a20617070726f766520746f2063616c6c657200000000000000604082015260600190565b6020808252602c908201527f4552433732313a206f70657261746f7220717565727920666f72206e6f6e657860408201526b34b9ba32b73a103a37b5b2b760a11b606082015260800190565b6020808252603b908201527f4f6e6c792074686520436f7265206f722041646d696e2061646472657373657360408201527f2063616e20666964646c652077697468206172746966616374732e0000000000606082015260800190565b60208082526038908201527f4552433732313a20617070726f76652063616c6c6572206973206e6f74206f7760408201527f6e6572206e6f7220617070726f76656420666f7220616c6c0000000000000000606082015260800190565b6020808252602a908201527f4552433732313a2062616c616e636520717565727920666f7220746865207a65604082015269726f206164647265737360b01b606082015260800190565b6020808252602e908201527f496e697469616c697a61626c653a20636f6e747261637420697320616c72656160408201526d191e481a5b9a5d1a585b1a5e995960921b606082015260800190565b60208082526022908201527f456e756d657261626c654d61703a20696e646578206f7574206f6620626f756e604082015261647360f01b606082015260800190565b6020808252818101527f4552433732313a206d696e7420746f20746865207a65726f2061646472657373604082015260600190565b6020808252602c908201527f4552433732313a20617070726f76656420717565727920666f72206e6f6e657860408201526b34b9ba32b73a103a37b5b2b760a11b606082015260800190565b60208082526029908201527f4552433732313a207472616e73666572206f6620746f6b656e2074686174206960408201526839903737ba1037bbb760b91b606082015260800190565b6020808252602f908201527f4552433732314d657461646174613a2055524920717565727920666f72206e6f60408201526e3732bc34b9ba32b73a103a37b5b2b760891b606082015260800190565b60208082526021908201527f4552433732313a20617070726f76616c20746f2063757272656e74206f776e656040820152603960f91b606082015260800190565b60208082526030908201527f796f752063616e6e6f742075706461746520616e20617274696661637420746860408201526f185d08191bd95cdb89dd08195e1a5cdd60821b606082015260800190565b60208082526031908201527f4552433732313a207472616e736665722063616c6c6572206973206e6f74206f6040820152701ddb995c881b9bdc88185c1c1c9bdd9959607a1b606082015260800190565b6020808252601d908201527f416464726573733a2063616c6c20746f206e6f6e2d636f6e7472616374000000604082015260600190565b60006101608201905061265d828451611fa0565b602083015160208301526040830151604083015260608301516126836060840182611fd2565b5060808301516126966080840182611fea565b5060a083015160a083015260c08301516126b360c0840182611f93565b5060e08301516126c660e0840182611fe0565b506101008381015190830152610120808401519083015261014092830151929091019190915290565b90815260200190565b60405181810167ffffffffffffffff8111828210171561271757600080fd5b604052919050565b60005b8381101561273a578181015183820152602001612722565b83811115610e2b5750506000910152565b6001600160a01b0381168114611bd757600080fd5b6001600160e01b031981168114611bd757600080fdfe4552433732313a207472616e7366657220746f206e6f6e20455243373231526563656976657220696d706c656d656e74657268747470733a2f2f7a6b67612e6d652f746f6b656e2d7572692f61727469666163742f4552433732313a206f776e657220717565727920666f72206e6f6e6578697374656e7420746f6b656ea2646970667358221220c535fea8c477fde49aad734d5754d83880c988fdab251455f951be933205f02264736f6c63430006090033",
    "linkReferences": {},
    "deployedLinkReferences": {}
}